{
  "contractName": "MaterialProvider",
  "abi": [
    {
      "constant": true,
      "inputs": [
        {
          "internalType": "uint256",
          "name": "",
          "type": "uint256"
        }
      ],
      "name": "owner",
      "outputs": [
        {
          "internalType": "address",
          "name": "",
          "type": "address"
        }
      ],
      "payable": false,
      "stateMutability": "view",
      "type": "function"
    },
    {
      "constant": false,
      "inputs": [
        {
          "internalType": "uint256",
          "name": "elevator_shaft",
          "type": "uint256"
        }
      ],
      "name": "calculMaterial",
      "outputs": [
        {
          "internalType": "bool",
          "name": "",
          "type": "bool"
        }
      ],
      "payable": false,
      "stateMutability": "nonpayable",
      "type": "function"
    }
  ],
  "bytecode": "0x608060405234801561001057600080fd5b50610170806100206000396000f3fe608060405234801561001057600080fd5b50600436106100365760003560e01c8063a123c33e1461003b578063f1d21ac8146100a9575b600080fd5b6100676004803603602081101561005157600080fd5b81019080803590602001909291905050506100ef565b604051808273ffffffffffffffffffffffffffffffffffffffff1673ffffffffffffffffffffffffffffffffffffffff16815260200191505060405180910390f35b6100d5600480360360208110156100bf57600080fd5b810190808035906020019092919050505061012b565b604051808215151515815260200191505060405180910390f35b600081815481106100fc57fe5b906000526020600020016000915054906101000a900473ffffffffffffffffffffffffffffffffffffffff1681565b600080829050600191505091905056fea265627a7a723158202ebd7ef73171c625afb8591224a5cd8b33302fdfc21b9b9433c278b18b1a06b564736f6c63430005100032",
  "source": "pragma solidity ^0.5.0;\r\n\r\ncontract MaterialProvider {\r\n\r\n    address[] public owner;\r\n\r\n    function calculMaterial(uint elevator_shaft) public returns(bool) {\r\n        uint aluminium_bars = elevator_shaft;\r\n        return true;\r\n    }\r\n    \r\n\r\n    // constructor(aluminum_bars, stainless_steel_sheets, springs_and_hardware, bumper_rubber_bands, interior_light_bulbs, display_LEDs) {\r\n    //     owner = msg.sender; // 'msg.sender' is sender of current call, contract deployer for a constructor\r\n    //     // this.aluminum_bars = aluminum_bars;\r\n    //     // this.stainless_steel_sheets = stainless_steel_sheets;\r\n    //     // this.springs_and_hardware = springs_and_hardware;\r\n    //     // this.bumper_rubber_bands = bumper_rubber_bands;\r\n    //     // this.interior_light_bulbs = interior_light_bulbs;\r\n    //     // this.display_LEDs = display_LEDs;\r\n\r\n    //     function calculMaterial(elevator_shaft, controller, door, button, display) private {\r\n        \r\n    //         // aluminium_bars = (elevator_shaft * 1) + (door * 2);\r\n    //         // stainless_steel_sheets = (door * 4) + (controller * 1); \r\n    //         // springs_and_hardware = (elevator_shaft * 2) + ();\r\n    //         // bumper_rubber_bands = (door * 2);\r\n    //         // interior_light_bulbs = (elevator_shaft * 2);\r\n    //         // display_LEDs = (elevator_shaft * 2) + display;\r\n\r\n        \r\n        \r\n    //     }\r\n\r\n    // }\r\n\r\n\r\n    //Retrieving the adopters\r\n    // function getOwner() public view returns (address[] memory) {\r\n    //     return owner;\r\n    // }\r\n}",
  "sourcePath": "C:/Users/marie/Desktop/Rocket-Elevator-BlockChain/Rocket_Elevators_Blockchain/contracts/MaterialProvider.sol",
  "compiler": {
    "name": "solc",
    "version": "0.5.16+commit.9c3226ce.Emscripten.clang"
  },
  "schemaVersion": "3.3.4",
  "updatedAt": "2021-04-14T11:19:02.239Z",
  "devdoc": {
    "methods": {}
  },
  "userdoc": {
    "methods": {}
  }
}