{
  "contractName": "MaterialProvider",
  "abi": [
    {
      "constant": false,
      "inputs": [
        {
          "internalType": "uint64",
          "name": "elevator_shaft",
          "type": "uint64"
        },
        {
          "internalType": "uint64",
          "name": "controller",
          "type": "uint64"
        },
        {
          "internalType": "uint64",
          "name": "door",
          "type": "uint64"
        },
        {
          "internalType": "uint64",
          "name": "button",
          "type": "uint64"
        },
        {
          "internalType": "uint64",
          "name": "display",
          "type": "uint64"
        }
      ],
      "name": "calculMaterial",
      "outputs": [
        {
          "components": [
            {
              "internalType": "uint64",
              "name": "aluminum_bars",
              "type": "uint64"
            },
            {
              "internalType": "uint64",
              "name": "stainless_steel_sheets",
              "type": "uint64"
            },
            {
              "internalType": "uint64",
              "name": "springs_and_hardware",
              "type": "uint64"
            },
            {
              "internalType": "uint64",
              "name": "bumper_rubber_bands",
              "type": "uint64"
            },
            {
              "internalType": "uint64",
              "name": "interior_light_bulbs",
              "type": "uint64"
            },
            {
              "internalType": "uint64",
              "name": "display_LEDs",
              "type": "uint64"
            }
          ],
          "internalType": "struct MaterialProvider.Material",
          "name": "",
          "type": "tuple"
        }
      ],
      "payable": false,
      "stateMutability": "nonpayable",
      "type": "function"
    },
    {
      "constant": true,
      "inputs": [],
      "name": "retrive",
      "outputs": [
        {
          "components": [
            {
              "internalType": "uint64",
              "name": "aluminum_bars",
              "type": "uint64"
            },
            {
              "internalType": "uint64",
              "name": "stainless_steel_sheets",
              "type": "uint64"
            },
            {
              "internalType": "uint64",
              "name": "springs_and_hardware",
              "type": "uint64"
            },
            {
              "internalType": "uint64",
              "name": "bumper_rubber_bands",
              "type": "uint64"
            },
            {
              "internalType": "uint64",
              "name": "interior_light_bulbs",
              "type": "uint64"
            },
            {
              "internalType": "uint64",
              "name": "display_LEDs",
              "type": "uint64"
            }
          ],
          "internalType": "struct MaterialProvider.Material",
          "name": "",
          "type": "tuple"
        }
      ],
      "payable": false,
      "stateMutability": "view",
      "type": "function"
    }
  ],
  "bytecode": "0x608060405234801561001057600080fd5b50610650806100206000396000f3fe608060405234801561001057600080fd5b50600436106100365760003560e01c8063a037ff7a1461003b578063a6b7fc5b1461006b575b600080fd5b610055600480360361005091908101906104c6565b610089565b60405161006291906105c7565b60405180910390f35b6100736102f9565b60405161008091906105c7565b60405180910390f35b61009161043f565b6002840260018702016000800160006101000a81548167ffffffffffffffff021916908367ffffffffffffffff1602179055506001850260048502016000800160086101000a81548167ffffffffffffffff021916908367ffffffffffffffff160217905550600286026000800160106101000a81548167ffffffffffffffff021916908367ffffffffffffffff160217905550600284026000800160186101000a81548167ffffffffffffffff021916908367ffffffffffffffff160217905550826002870201600060010160006101000a81548167ffffffffffffffff021916908367ffffffffffffffff160217905550816002870201600060010160086101000a81548167ffffffffffffffff021916908367ffffffffffffffff16021790555060006040518060c00160405290816000820160009054906101000a900467ffffffffffffffff1667ffffffffffffffff1667ffffffffffffffff1681526020016000820160089054906101000a900467ffffffffffffffff1667ffffffffffffffff1667ffffffffffffffff1681526020016000820160109054906101000a900467ffffffffffffffff1667ffffffffffffffff1667ffffffffffffffff1681526020016000820160189054906101000a900467ffffffffffffffff1667ffffffffffffffff1667ffffffffffffffff1681526020016001820160009054906101000a900467ffffffffffffffff1667ffffffffffffffff1667ffffffffffffffff1681526020016001820160089054906101000a900467ffffffffffffffff1667ffffffffffffffff1667ffffffffffffffff1681525050905095945050505050565b61030161043f565b60006040518060c00160405290816000820160009054906101000a900467ffffffffffffffff1667ffffffffffffffff1667ffffffffffffffff1681526020016000820160089054906101000a900467ffffffffffffffff1667ffffffffffffffff1667ffffffffffffffff1681526020016000820160109054906101000a900467ffffffffffffffff1667ffffffffffffffff1667ffffffffffffffff1681526020016000820160189054906101000a900467ffffffffffffffff1667ffffffffffffffff1667ffffffffffffffff1681526020016001820160009054906101000a900467ffffffffffffffff1667ffffffffffffffff1667ffffffffffffffff1681526020016001820160089054906101000a900467ffffffffffffffff1667ffffffffffffffff1667ffffffffffffffff1681525050905090565b6040518060c00160405280600067ffffffffffffffff168152602001600067ffffffffffffffff168152602001600067ffffffffffffffff168152602001600067ffffffffffffffff168152602001600067ffffffffffffffff168152602001600067ffffffffffffffff1681525090565b6000813590506104c0816105f6565b92915050565b600080600080600060a086880312156104de57600080fd5b60006104ec888289016104b1565b95505060206104fd888289016104b1565b945050604061050e888289016104b1565b935050606061051f888289016104b1565b9250506080610530888289016104b1565b9150509295509295909350565b60c08201600082015161055360008501826105b8565b50602082015161056660208501826105b8565b50604082015161057960408501826105b8565b50606082015161058c60608501826105b8565b50608082015161059f60808501826105b8565b5060a08201516105b260a08501826105b8565b50505050565b6105c1816105e2565b82525050565b600060c0820190506105dc600083018461053d565b92915050565b600067ffffffffffffffff82169050919050565b6105ff816105e2565b811461060a57600080fd5b5056fea365627a7a72315820fecce44b8021bf36d9319f57c7c1b13fc3866dfc0bd1ecfd4aa6a358e47433d06c6578706572696d656e74616cf564736f6c63430005100040",
  "source": "pragma solidity ^0.5.0;\npragma experimental ABIEncoderV2;\n\ncontract MaterialProvider {\n    Material mat;\n    struct Material {\n        uint64 aluminum_bars;\n        uint64 stainless_steel_sheets;\n        uint64 springs_and_hardware;\n        uint64 bumper_rubber_bands;\n        uint64 interior_light_bulbs;\n        uint64 display_LEDs;\n    }\n\n    //Calcul material base on input component\n    function calculMaterial(\n        uint64 elevator_shaft,\n        uint64 controller,\n        uint64 door,\n        uint64 button,\n        uint64 display\n    ) public returns (Material memory) {\n        mat.aluminum_bars = (elevator_shaft * 1) + (door * 2);\n        mat.stainless_steel_sheets = (door * 4) + (controller * 1);\n        mat.springs_and_hardware = (elevator_shaft * 2);\n        mat.bumper_rubber_bands = (door * 2);\n        mat.interior_light_bulbs = (elevator_shaft * 2) + button;\n        mat.display_LEDs = (elevator_shaft * 2) + display;\n        return mat;\n    }\n\n    //Retrieving the value\n    function retrive() public view returns (Material memory) {\n        return mat;\n    }\n}\n",
  "sourcePath": "/Users/gabrielrioux/Rocket_Elevators_Blockchain/contracts/MaterialProvider.sol",
  "compiler": {
    "name": "solc",
    "version": "0.5.16+commit.9c3226ce.Emscripten.clang"
  },
  "schemaVersion": "3.3.4",
  "updatedAt": "2021-04-15T18:39:55.818Z",
  "networkType": "ethereum",
  "devdoc": {
    "methods": {}
  },
  "userdoc": {
    "methods": {}
  }
}