{
  "contractName": "ProjectOffice",
  "abi": [
    {
      "constant": false,
      "inputs": [
        {
          "internalType": "uint64",
          "name": "batteries",
          "type": "uint64"
        },
        {
          "internalType": "uint64",
          "name": "columns",
          "type": "uint64"
        },
        {
          "internalType": "uint64",
          "name": "elevators",
          "type": "uint64"
        },
        {
          "internalType": "uint64",
          "name": "floors",
          "type": "uint64"
        }
      ],
      "name": "set",
      "outputs": [
        {
          "components": [
            {
              "internalType": "uint64",
              "name": "elevator_shafts",
              "type": "uint64"
            },
            {
              "internalType": "uint64",
              "name": "controllers",
              "type": "uint64"
            },
            {
              "internalType": "uint64",
              "name": "buttons",
              "type": "uint64"
            },
            {
              "internalType": "uint64",
              "name": "doors",
              "type": "uint64"
            },
            {
              "internalType": "uint64",
              "name": "displays",
              "type": "uint64"
            }
          ],
          "internalType": "struct ProjectOffice.Project",
          "name": "",
          "type": "tuple"
        }
      ],
      "payable": false,
      "stateMutability": "nonpayable",
      "type": "function"
    },
    {
      "constant": true,
      "inputs": [],
      "name": "retrive",
      "outputs": [
        {
          "components": [
            {
              "internalType": "uint64",
              "name": "elevator_shafts",
              "type": "uint64"
            },
            {
              "internalType": "uint64",
              "name": "controllers",
              "type": "uint64"
            },
            {
              "internalType": "uint64",
              "name": "buttons",
              "type": "uint64"
            },
            {
              "internalType": "uint64",
              "name": "doors",
              "type": "uint64"
            },
            {
              "internalType": "uint64",
              "name": "displays",
              "type": "uint64"
            }
          ],
          "internalType": "struct ProjectOffice.Project",
          "name": "",
          "type": "tuple"
        }
      ],
      "payable": false,
      "stateMutability": "view",
      "type": "function"
    }
  ],
  "bytecode": "0x608060405234801561001057600080fd5b50610572806100206000396000f3fe608060405234801561001057600080fd5b50600436106100365760003560e01c80635feda0891461003b578063a6b7fc5b1461006b575b600080fd5b6100556004803603610050919081019061040f565b610089565b60405161006291906104e9565b60405180910390f35b610073610285565b60405161008091906104e9565b60405180910390f35b610091610399565b826000800160006101000a81548167ffffffffffffffff021916908367ffffffffffffffff160217905550846000800160086101000a81548167ffffffffffffffff021916908367ffffffffffffffff16021790555083600183038302026000800160106101000a81548167ffffffffffffffff021916908367ffffffffffffffff16021790555083828402026000800160186101000a81548167ffffffffffffffff021916908367ffffffffffffffff16021790555082600060010160006101000a81548167ffffffffffffffff021916908367ffffffffffffffff16021790555060006040518060a00160405290816000820160009054906101000a900467ffffffffffffffff1667ffffffffffffffff1667ffffffffffffffff1681526020016000820160089054906101000a900467ffffffffffffffff1667ffffffffffffffff1667ffffffffffffffff1681526020016000820160109054906101000a900467ffffffffffffffff1667ffffffffffffffff1667ffffffffffffffff1681526020016000820160189054906101000a900467ffffffffffffffff1667ffffffffffffffff1667ffffffffffffffff1681526020016001820160009054906101000a900467ffffffffffffffff1667ffffffffffffffff1667ffffffffffffffff16815250509050949350505050565b61028d610399565b60006040518060a00160405290816000820160009054906101000a900467ffffffffffffffff1667ffffffffffffffff1667ffffffffffffffff1681526020016000820160089054906101000a900467ffffffffffffffff1667ffffffffffffffff1667ffffffffffffffff1681526020016000820160109054906101000a900467ffffffffffffffff1667ffffffffffffffff1667ffffffffffffffff1681526020016000820160189054906101000a900467ffffffffffffffff1667ffffffffffffffff1667ffffffffffffffff1681526020016001820160009054906101000a900467ffffffffffffffff1667ffffffffffffffff1667ffffffffffffffff1681525050905090565b6040518060a00160405280600067ffffffffffffffff168152602001600067ffffffffffffffff168152602001600067ffffffffffffffff168152602001600067ffffffffffffffff168152602001600067ffffffffffffffff1681525090565b60008135905061040981610518565b92915050565b6000806000806080858703121561042557600080fd5b6000610433878288016103fa565b9450506020610444878288016103fa565b9350506040610455878288016103fa565b9250506060610466878288016103fa565b91505092959194509250565b60a08201600082015161048860008501826104da565b50602082015161049b60208501826104da565b5060408201516104ae60408501826104da565b5060608201516104c160608501826104da565b5060808201516104d460808501826104da565b50505050565b6104e381610504565b82525050565b600060a0820190506104fe6000830184610472565b92915050565b600067ffffffffffffffff82169050919050565b61052181610504565b811461052c57600080fd5b5056fea365627a7a723158207927c7ec80282db2ff62afb47857540c1c4aa600ccab7861fad8640a0df7521d6c6578706572696d656e74616cf564736f6c63430005100040",
  "source": "pragma solidity ^0.5.0;\npragma experimental ABIEncoderV2;\n\ncontract ProjectOffice {\n    Project proj;\n    struct Project {\n        uint64 elevator_shafts;\n        uint64 controllers;\n        uint64 buttons;\n        uint64 doors;\n        uint64 displays;\n    }\n\n    //Calcul material base on input component\n    function set(\n        uint64 batteries,\n        uint64 columns,\n        uint64 elevators,\n        uint64 floors\n    ) public returns (Project memory) {\n        proj.elevator_shafts = elevators;\n        proj.controllers = batteries;\n        proj.buttons = (floors * (floors - 1) * columns);\n        proj.doors = (elevators * floors * columns);\n        proj.displays = elevators;\n        return proj;\n    }\n\n    //Retrieving the value\n    function retrive() public view returns (Project memory) {\n        return proj;\n    }\n}\n",
  "sourcePath": "/home/emtl688/leader/Rocket_Elevators_Blockchain/contracts/ProjectOffice.sol",
  "compiler": {
    "name": "solc",
    "version": "0.5.16+commit.9c3226ce.Emscripten.clang"
  },
  "schemaVersion": "3.3.4",
  "updatedAt": "2021-04-16T17:53:05.403Z",
  "networkType": "ethereum",
  "devdoc": {
    "methods": {}
  },
  "userdoc": {
    "methods": {}
  }
}