{
  "contractName": "ProjectOffice",
  "abi": [
    {
      "constant": true,
      "inputs": [
        {
          "internalType": "uint256",
          "name": "",
          "type": "uint256"
        }
      ],
      "name": "component",
      "outputs": [
        {
          "internalType": "uint64",
          "name": "ElevatorsShafts",
          "type": "uint64"
        },
        {
          "internalType": "uint64",
          "name": "Controllers",
          "type": "uint64"
        },
        {
          "internalType": "uint64",
          "name": "Buttons",
          "type": "uint64"
        },
        {
          "internalType": "uint64",
          "name": "Doors",
          "type": "uint64"
        },
        {
          "internalType": "uint64",
          "name": "Displays",
          "type": "uint64"
        }
      ],
      "payable": false,
      "stateMutability": "view",
      "type": "function"
    },
    {
      "constant": false,
      "inputs": [
        {
          "internalType": "uint64",
          "name": "Batteries",
          "type": "uint64"
        },
        {
          "internalType": "uint64",
          "name": "Columns",
          "type": "uint64"
        },
        {
          "internalType": "uint64",
          "name": "Elevators",
          "type": "uint64"
        },
        {
          "internalType": "uint64",
          "name": "Floors",
          "type": "uint64"
        }
      ],
      "name": "set",
      "outputs": [],
      "payable": false,
      "stateMutability": "nonpayable",
      "type": "function"
    },
    {
      "constant": true,
      "inputs": [],
      "name": "get",
      "outputs": [
        {
          "components": [
            {
              "internalType": "uint64",
              "name": "ElevatorsShafts",
              "type": "uint64"
            },
            {
              "internalType": "uint64",
              "name": "Controllers",
              "type": "uint64"
            },
            {
              "internalType": "uint64",
              "name": "Buttons",
              "type": "uint64"
            },
            {
              "internalType": "uint64",
              "name": "Doors",
              "type": "uint64"
            },
            {
              "internalType": "uint64",
              "name": "Displays",
              "type": "uint64"
            }
          ],
          "internalType": "struct ProjectOffice.Components[]",
          "name": "",
          "type": "tuple[]"
        }
      ],
      "payable": false,
      "stateMutability": "view",
      "type": "function"
    },
    {
      "constant": true,
      "inputs": [],
      "name": "length",
      "outputs": [
        {
          "internalType": "uint256",
          "name": "",
          "type": "uint256"
        }
      ],
      "payable": false,
      "stateMutability": "view",
      "type": "function"
    }
  ],
  "bytecode": "0x608060405234801561001057600080fd5b50610837806100206000396000f3fe608060405234801561001057600080fd5b506004361061004c5760003560e01c80631f7b6d32146100515780635feda0891461006f5780636d4ce63c1461008b57806371ba71f5146100a9575b600080fd5b6100596100dd565b6040516100669190610701565b60405180910390f35b61008960048036036100849190810190610571565b6100e9565b005b6100936102bd565b6040516100a091906106df565b60405180910390f35b6100c360048036036100be9190810190610548565b610416565b6040516100d495949392919061071c565b60405180910390f35b60008080549050905090565b6100f16104bd565b838302816000019067ffffffffffffffff16908167ffffffffffffffff168152505084816020019067ffffffffffffffff16908167ffffffffffffffff168152505060058202816040019067ffffffffffffffff16908167ffffffffffffffff1681525050838202816060019067ffffffffffffffff16908167ffffffffffffffff1681525050838302816080019067ffffffffffffffff16908167ffffffffffffffff16815250506000819080600181540180825580915050906001820390600052602060002090600202016000909192909190915060008201518160000160006101000a81548167ffffffffffffffff021916908367ffffffffffffffff16021790555060208201518160000160086101000a81548167ffffffffffffffff021916908367ffffffffffffffff16021790555060408201518160000160106101000a81548167ffffffffffffffff021916908367ffffffffffffffff16021790555060608201518160000160186101000a81548167ffffffffffffffff021916908367ffffffffffffffff16021790555060808201518160010160006101000a81548167ffffffffffffffff021916908367ffffffffffffffff1602179055505050505050505050565b60606000805480602002602001604051908101604052809291908181526020016000905b8282101561040d57838290600052602060002090600202016040518060a00160405290816000820160009054906101000a900467ffffffffffffffff1667ffffffffffffffff1667ffffffffffffffff1681526020016000820160089054906101000a900467ffffffffffffffff1667ffffffffffffffff1667ffffffffffffffff1681526020016000820160109054906101000a900467ffffffffffffffff1667ffffffffffffffff1667ffffffffffffffff1681526020016000820160189054906101000a900467ffffffffffffffff1667ffffffffffffffff1667ffffffffffffffff1681526020016001820160009054906101000a900467ffffffffffffffff1667ffffffffffffffff1667ffffffffffffffff1681525050815260200190600101906102e1565b50505050905090565b6000818154811061042357fe5b90600052602060002090600202016000915090508060000160009054906101000a900467ffffffffffffffff16908060000160089054906101000a900467ffffffffffffffff16908060000160109054906101000a900467ffffffffffffffff16908060000160189054906101000a900467ffffffffffffffff16908060010160009054906101000a900467ffffffffffffffff16905085565b6040518060a00160405280600067ffffffffffffffff168152602001600067ffffffffffffffff168152602001600067ffffffffffffffff168152602001600067ffffffffffffffff168152602001600067ffffffffffffffff1681525090565b60008135905061052d816107c6565b92915050565b600081359050610542816107dd565b92915050565b60006020828403121561055a57600080fd5b60006105688482850161051e565b91505092915050565b6000806000806080858703121561058757600080fd5b600061059587828801610533565b94505060206105a687828801610533565b93505060406105b787828801610533565b92505060606105c887828801610533565b91505092959194509250565b60006105e0838361064a565b60a08301905092915050565b60006105f78261077f565b6106018185610797565b935061060c8361076f565b8060005b8381101561063d57815161062488826105d4565b975061062f8361078a565b925050600181019050610610565b5085935050505092915050565b60a08201600082015161066060008501826106c1565b50602082015161067360208501826106c1565b50604082015161068660408501826106c1565b50606082015161069960608501826106c1565b5060808201516106ac60808501826106c1565b50505050565b6106bb816107a8565b82525050565b6106ca816107b2565b82525050565b6106d9816107b2565b82525050565b600060208201905081810360008301526106f981846105ec565b905092915050565b600060208201905061071660008301846106b2565b92915050565b600060a08201905061073160008301886106d0565b61073e60208301876106d0565b61074b60408301866106d0565b61075860608301856106d0565b61076560808301846106d0565b9695505050505050565b6000819050602082019050919050565b600081519050919050565b6000602082019050919050565b600082825260208201905092915050565b6000819050919050565b600067ffffffffffffffff82169050919050565b6107cf816107a8565b81146107da57600080fd5b50565b6107e6816107b2565b81146107f157600080fd5b5056fea365627a7a723158200347ee75781afa4eb96f66c1e5e44cd7dcdc3917de8a21b471e51b4b8f6620a46c6578706572696d656e74616cf564736f6c63430005100040",
  "source": "pragma solidity ^0.5.0;\npragma experimental ABIEncoderV2;\n\n\n// 1 battery\n// 2 columns * 4 exclium elevators\n// 5 floors\n\n\ncontract ProjectOffice {\n\n    Components[] public component;\n\n    struct Components{\n    uint64 ElevatorsShafts; // 8 = 2 columns * 4 elevators\n    uint64 Controllers; // 1 = 1 per battery\n    uint64 Buttons; //  25 = 5floors * 5 buttons\n    uint64 Doors; // 10 =1 per floor * columns\n    uint64 Displays; // 8 = 1 per elevator \n    }\n\n    function set(uint64 Batteries, uint64 Columns, uint64 Elevators, uint64 Floors) public\n    {       \n        Components memory comp;\n        comp.ElevatorsShafts = Elevators * Columns;\n        comp.Controllers = Batteries;\n        comp.Buttons = (Floors * 5);\n        comp.Doors = Floors * Columns;\n        comp.Displays = Elevators * Columns;\n        component.push(comp);\n    }\n\n     function get() public view returns(Components[] memory)\n    {\n        return component;\n    }\n\n    function length() public view returns(uint){\n        return component.length;\n    }\n}\n\n\n// contract ProjectOffice {\n\n//     uint64 ElevatorsShafts; // 8 = 2 columns * 4 elevators\n//     uint64 Controllers; // 1 = 1 per battery\n//     uint64 Buttons; //  25 = 5floors * 5 buttons\n//     uint64 Doors; // 10 =1 per floor * columns\n//     uint64 Displays; // 8 = 1 per elevator \n    \n\n//     constructor(address customer,uint64 _shafts,uint64 _controllers,uint64 _buttons,uint64 _doors,uint64 _displays) public\n//     {\n//         customer = msg.sender;\n//         ElevatorsShafts = _shafts;\n//         Controllers = _controllers;\n//         Buttons = _buttons;\n//         Doors = _doors;\n//         Displays = _displays;\n//     }\n\n//     function newOrder() public view returns(uint64[5] memory)\n//           {       \n//               uint64[5] memory components = [\n//                 ElevatorsShafts,\n//                 Controllers,\n//                 Buttons,\n//                 Doors,\n//                 Displays\n//             ];\n//                 return components;\n//            }\n// }",
  "sourcePath": "/Users/gabrielrioux/Rocket_Elevators_Blockchain/contracts/ProjectOffice.sol",
  "compiler": {
    "name": "solc",
    "version": "0.5.16+commit.9c3226ce.Emscripten.clang"
  },
  "schemaVersion": "3.3.4",
  "updatedAt": "2021-04-14T13:47:04.752Z",
  "devdoc": {
    "methods": {}
  },
  "userdoc": {
    "methods": {}
  }
}