{
  "contractName": "ProjectOffice",
  "abi": [
    {
      "inputs": [],
      "payable": false,
      "stateMutability": "nonpayable",
      "type": "constructor"
    },
    {
      "constant": true,
      "inputs": [
        {
          "internalType": "uint256",
          "name": "",
          "type": "uint256"
        }
      ],
      "name": "component",
      "outputs": [
        {
          "internalType": "uint256",
          "name": "Id",
          "type": "uint256"
        },
        {
          "internalType": "uint256",
          "name": "ElevatorsShafts",
          "type": "uint256"
        },
        {
          "internalType": "uint256",
          "name": "Controllers",
          "type": "uint256"
        },
        {
          "internalType": "uint256",
          "name": "Buttons",
          "type": "uint256"
        },
        {
          "internalType": "uint256",
          "name": "Doors",
          "type": "uint256"
        },
        {
          "internalType": "uint256",
          "name": "Displays",
          "type": "uint256"
        }
      ],
      "payable": false,
      "stateMutability": "view",
      "type": "function"
    },
    {
      "constant": true,
      "inputs": [],
      "name": "customer",
      "outputs": [
        {
          "internalType": "address",
          "name": "",
          "type": "address"
        }
      ],
      "payable": false,
      "stateMutability": "view",
      "type": "function"
    },
    {
      "constant": false,
      "inputs": [
        {
          "internalType": "uint256",
          "name": "Batteries",
          "type": "uint256"
        },
        {
          "internalType": "uint256",
          "name": "Columns",
          "type": "uint256"
        },
        {
          "internalType": "uint256",
          "name": "Elevators",
          "type": "uint256"
        },
        {
          "internalType": "uint256",
          "name": "Floors",
          "type": "uint256"
        }
      ],
      "name": "set",
      "outputs": [],
      "payable": false,
      "stateMutability": "nonpayable",
      "type": "function"
    },
    {
      "constant": true,
      "inputs": [],
      "name": "componentCount",
      "outputs": [
        {
          "internalType": "uint256",
          "name": "",
          "type": "uint256"
        }
      ],
      "payable": false,
      "stateMutability": "view",
      "type": "function"
    },
    {
      "constant": true,
      "inputs": [
        {
          "internalType": "uint256",
          "name": "Id",
          "type": "uint256"
        }
      ],
      "name": "getId",
      "outputs": [
        {
          "internalType": "uint256",
          "name": "",
          "type": "uint256"
        }
      ],
      "payable": false,
      "stateMutability": "view",
      "type": "function"
    },
    {
      "constant": true,
      "inputs": [
        {
          "internalType": "uint256",
          "name": "Id",
          "type": "uint256"
        }
      ],
      "name": "getElevatorsShafts",
      "outputs": [
        {
          "internalType": "uint256",
          "name": "",
          "type": "uint256"
        }
      ],
      "payable": false,
      "stateMutability": "view",
      "type": "function"
    },
    {
      "constant": true,
      "inputs": [
        {
          "internalType": "uint256",
          "name": "Id",
          "type": "uint256"
        }
      ],
      "name": "getControllers",
      "outputs": [
        {
          "internalType": "uint256",
          "name": "",
          "type": "uint256"
        }
      ],
      "payable": false,
      "stateMutability": "view",
      "type": "function"
    },
    {
      "constant": true,
      "inputs": [
        {
          "internalType": "uint256",
          "name": "Id",
          "type": "uint256"
        }
      ],
      "name": "getButtons",
      "outputs": [
        {
          "internalType": "uint256",
          "name": "",
          "type": "uint256"
        }
      ],
      "payable": false,
      "stateMutability": "view",
      "type": "function"
    },
    {
      "constant": true,
      "inputs": [
        {
          "internalType": "uint256",
          "name": "Id",
          "type": "uint256"
        }
      ],
      "name": "getDoors",
      "outputs": [
        {
          "internalType": "uint256",
          "name": "",
          "type": "uint256"
        }
      ],
      "payable": false,
      "stateMutability": "view",
      "type": "function"
    },
    {
      "constant": true,
      "inputs": [
        {
          "internalType": "uint256",
          "name": "Id",
          "type": "uint256"
        }
      ],
      "name": "getDisplays",
      "outputs": [
        {
          "internalType": "uint256",
          "name": "",
          "type": "uint256"
        }
      ],
      "payable": false,
      "stateMutability": "view",
      "type": "function"
    },
    {
      "constant": true,
      "inputs": [],
      "name": "getComponent",
      "outputs": [
        {
          "components": [
            {
              "internalType": "uint256",
              "name": "Id",
              "type": "uint256"
            },
            {
              "internalType": "uint256",
              "name": "ElevatorsShafts",
              "type": "uint256"
            },
            {
              "internalType": "uint256",
              "name": "Controllers",
              "type": "uint256"
            },
            {
              "internalType": "uint256",
              "name": "Buttons",
              "type": "uint256"
            },
            {
              "internalType": "uint256",
              "name": "Doors",
              "type": "uint256"
            },
            {
              "internalType": "uint256",
              "name": "Displays",
              "type": "uint256"
            }
          ],
          "internalType": "struct ProjectOffice.Components[]",
          "name": "",
          "type": "tuple[]"
        }
      ],
      "payable": false,
      "stateMutability": "view",
      "type": "function"
    }
  ],
  "bytecode": "0x6080604052600160025534801561001557600080fd5b5033600160006101000a81548173ffffffffffffffffffffffffffffffffffffffff021916908373ffffffffffffffffffffffffffffffffffffffff16021790555061097b806100666000396000f3fe608060405234801561001057600080fd5b50600436106100a95760003560e01c8063606ce3bf11610071578063606ce3bf1461017a5780636623db1d1461019657806371ba71f5146101b45780639c557c43146101e9578063d744511e14610219578063f7ed8e6314610249576100a9565b806314cec06a146100ae5780631fe26e9d146100de5780632804b2c0146100fc5780634793afd41461011a578063545a153a1461014a575b600080fd5b6100c860048036036100c39190810190610649565b610279565b6040516100d59190610830565b60405180910390f35b6100e66102a0565b6040516100f39190610830565b60405180910390f35b6101046102ac565b60405161011191906107f3565b60405180910390f35b610134600480360361012f9190810190610649565b6102d2565b6040516101419190610830565b60405180910390f35b610164600480360361015f9190810190610649565b6102f9565b6040516101719190610830565b60405180910390f35b610194600480360361018f9190810190610672565b610320565b005b61019e61045a565b6040516101ab919061080e565b60405180910390f35b6101ce60048036036101c99190810190610649565b6104f5565b6040516101e09695949392919061084b565b60405180910390f35b61020360048036036101fe9190810190610649565b61053e565b6040516102109190610830565b60405180910390f35b610233600480360361022e9190810190610649565b610565565b6040516102409190610830565b60405180910390f35b610263600480360361025e9190810190610649565b61058c565b6040516102709190610830565b60405180910390f35b600080828154811061028757fe5b9060005260206000209060060201600301549050919050565b60008080549050905090565b600160009054906101000a900473ffffffffffffffffffffffffffffffffffffffff1681565b60008082815481106102e057fe5b9060005260206000209060060201600201549050919050565b600080828154811061030757fe5b9060005260206000209060060201600001549050919050565b6000805480919060010161033491906105b3565b5060025460006001600080549050038154811061034d57fe5b90600052602060002090600602016000018190555082820260006001600080549050038154811061037a57fe5b906000526020600020906006020160010181905550836000600160008054905003815481106103a557fe5b906000526020600020906006020160020181905550600581026000600160008054905003815481106103d357fe5b90600052602060002090600602016003018190555082810260006001600080549050038154811061040057fe5b90600052602060002090600602016004018190555082820260006001600080549050038154811061042d57fe5b90600052602060002090600602016005018190555060026000815480929190600101919050555050505050565b60606000805480602002602001604051908101604052809291908181526020016000905b828210156104ec57838290600052602060002090600602016040518060c001604052908160008201548152602001600182015481526020016002820154815260200160038201548152602001600482015481526020016005820154815250508152602001906001019061047e565b50505050905090565b6000818154811061050257fe5b90600052602060002090600602016000915090508060000154908060010154908060020154908060030154908060040154908060050154905086565b600080828154811061054c57fe5b9060005260206000209060060201600501549050919050565b600080828154811061057357fe5b9060005260206000209060060201600401549050919050565b600080828154811061059a57fe5b9060005260206000209060060201600101549050919050565b8154818355818111156105e0576006028160060283600052602060002091820191016105df91906105e5565b5b505050565b61063191905b8082111561062d5760008082016000905560018201600090556002820160009055600382016000905560048201600090556005820160009055506006016105eb565b5090565b90565b60008135905061064381610921565b92915050565b60006020828403121561065b57600080fd5b600061066984828501610634565b91505092915050565b6000806000806080858703121561068857600080fd5b600061069687828801610634565b94505060206106a787828801610634565b93505060406106b887828801610634565b92505060606106c987828801610634565b91505092959194509250565b60006106e1838361075a565b60c08301905092915050565b6106f6816108e5565b82525050565b6000610707826108bc565b61071181856108d4565b935061071c836108ac565b8060005b8381101561074d57815161073488826106d5565b975061073f836108c7565b925050600181019050610720565b5085935050505092915050565b60c08201600082015161077060008501826107d5565b50602082015161078360208501826107d5565b50604082015161079660408501826107d5565b5060608201516107a960608501826107d5565b5060808201516107bc60808501826107d5565b5060a08201516107cf60a08501826107d5565b50505050565b6107de81610917565b82525050565b6107ed81610917565b82525050565b600060208201905061080860008301846106ed565b92915050565b6000602082019050818103600083015261082881846106fc565b905092915050565b600060208201905061084560008301846107e4565b92915050565b600060c08201905061086060008301896107e4565b61086d60208301886107e4565b61087a60408301876107e4565b61088760608301866107e4565b61089460808301856107e4565b6108a160a08301846107e4565b979650505050505050565b6000819050602082019050919050565b600081519050919050565b6000602082019050919050565b600082825260208201905092915050565b60006108f0826108f7565b9050919050565b600073ffffffffffffffffffffffffffffffffffffffff82169050919050565b6000819050919050565b61092a81610917565b811461093557600080fd5b5056fea365627a7a72315820bee109c471c386335d8b98089fd4baeb3ef477ba6e8d00f95500c42c018019826c6578706572696d656e74616cf564736f6c63430005100040",
  "source": "pragma solidity ^0.5.0;\npragma experimental ABIEncoderV2;\n\ncontract ProjectOffice {\n    Components[] public component;\n    address public customer;\n\n    struct Components {\n        uint256 Id;\n        uint256 ElevatorsShafts; // 8 = 2 columns * 4 elevators\n        uint256 Controllers; // 1 = 1 per battery\n        uint256 Buttons; //  25 = 5floors * 5 buttons\n        uint256 Doors; // 10 =1 per floor * columns\n        uint256 Displays; // 8 = 1 per elevator\n    }\n\n    constructor() public {\n        customer = msg.sender;\n    }\n\n    uint256 orderId = 1;\n\n    function set(\n        uint256 Batteries,\n        uint256 Columns,\n        uint256 Elevators,\n        uint256 Floors\n    ) public {\n        component.length++;\n        component[component.length - 1].Id = orderId;\n        component[component.length - 1].ElevatorsShafts = Elevators * Columns;\n        component[component.length - 1].Controllers = Batteries;\n        component[component.length - 1].Buttons = (Floors * 5);\n        component[component.length - 1].Doors = Floors * Columns;\n        component[component.length - 1].Displays = Elevators * Columns;\n        orderId++;\n    }\n\n    //   function addOrder(uint _shafts,uint _controllers,uint _buttons,uint _doors,uint _displays) public returns(uint)\n    // {\n    //     component.length++;\n    //     component[component.length-1].ElevatorsShafts = _shafts;\n    //     component[component.length-1].Controllers = _controllers;\n    //     component[component.length-1].Buttons = _buttons;\n    //     component[component.length-1].Doors = _doors;\n    //     component[component.length-1].Displays = _displays;\n    //     return component.length;\n    // }\n\n    function componentCount() public view returns (uint256) {\n        return component.length;\n    }\n\n    function getId(uint256 Id) public view returns (uint256) {\n        return component[Id].Id;\n    }\n\n    function getElevatorsShafts(uint256 Id) public view returns (uint256) {\n        return component[Id].ElevatorsShafts;\n    }\n\n    function getControllers(uint256 Id) public view returns (uint256) {\n        return component[Id].Controllers;\n    }\n\n    function getButtons(uint256 Id) public view returns (uint256) {\n        return component[Id].Buttons;\n    }\n\n    function getDoors(uint256 Id) public view returns (uint256) {\n        return component[Id].Doors;\n    }\n\n    function getDisplays(uint256 Id) public view returns (uint256) {\n        return component[Id].Displays;\n    }\n\n    function getComponent() public view returns (Components[] memory) {\n        return component;\n    }\n}\n",
  "sourcePath": "/home/emtl688/leader/Rocket_Elevators_Blockchain/contracts/ProjectOffice.sol",
  "compiler": {
    "name": "solc",
    "version": "0.5.16+commit.9c3226ce.Emscripten.clang"
  },
  "schemaVersion": "3.3.4",
  "updatedAt": "2021-04-15T14:36:13.919Z",
  "networkType": "ethereum",
  "devdoc": {
    "methods": {}
  },
  "userdoc": {
    "methods": {}
  }
}