{
  "contractName": "ProjectOffice",
  "abi": [
    {
      "inputs": [],
      "payable": false,
      "stateMutability": "nonpayable",
      "type": "constructor"
    },
    {
      "constant": true,
      "inputs": [
        {
          "internalType": "uint256",
          "name": "",
          "type": "uint256"
        }
      ],
      "name": "component",
      "outputs": [
        {
          "internalType": "uint256",
          "name": "Id",
          "type": "uint256"
        },
        {
          "internalType": "uint256",
          "name": "ElevatorsShafts",
          "type": "uint256"
        },
        {
          "internalType": "uint256",
          "name": "Controllers",
          "type": "uint256"
        },
        {
          "internalType": "uint256",
          "name": "Buttons",
          "type": "uint256"
        },
        {
          "internalType": "uint256",
          "name": "Doors",
          "type": "uint256"
        },
        {
          "internalType": "uint256",
          "name": "Displays",
          "type": "uint256"
        }
      ],
      "payable": false,
      "stateMutability": "view",
      "type": "function"
    },
    {
      "constant": true,
      "inputs": [],
      "name": "customer",
      "outputs": [
        {
          "internalType": "address",
          "name": "",
          "type": "address"
        }
      ],
      "payable": false,
      "stateMutability": "view",
      "type": "function"
    },
    {
      "constant": false,
      "inputs": [
        {
          "internalType": "uint256",
          "name": "Batteries",
          "type": "uint256"
        },
        {
          "internalType": "uint256",
          "name": "Columns",
          "type": "uint256"
        },
        {
          "internalType": "uint256",
          "name": "Elevators",
          "type": "uint256"
        },
        {
          "internalType": "uint256",
          "name": "Floors",
          "type": "uint256"
        }
      ],
      "name": "set",
      "outputs": [],
      "payable": false,
      "stateMutability": "nonpayable",
      "type": "function"
    },
    {
      "constant": true,
      "inputs": [
        {
          "internalType": "uint256",
          "name": "Id",
          "type": "uint256"
        }
      ],
      "name": "getId",
      "outputs": [
        {
          "internalType": "uint256",
          "name": "",
          "type": "uint256"
        }
      ],
      "payable": false,
      "stateMutability": "view",
      "type": "function"
    },
    {
      "constant": true,
      "inputs": [
        {
          "internalType": "uint256",
          "name": "Id",
          "type": "uint256"
        }
      ],
      "name": "getElevatorsShafts",
      "outputs": [
        {
          "internalType": "uint256",
          "name": "",
          "type": "uint256"
        }
      ],
      "payable": false,
      "stateMutability": "view",
      "type": "function"
    },
    {
      "constant": true,
      "inputs": [
        {
          "internalType": "uint256",
          "name": "Id",
          "type": "uint256"
        }
      ],
      "name": "getControllers",
      "outputs": [
        {
          "internalType": "uint256",
          "name": "",
          "type": "uint256"
        }
      ],
      "payable": false,
      "stateMutability": "view",
      "type": "function"
    },
    {
      "constant": true,
      "inputs": [
        {
          "internalType": "uint256",
          "name": "Id",
          "type": "uint256"
        }
      ],
      "name": "getButtons",
      "outputs": [
        {
          "internalType": "uint256",
          "name": "",
          "type": "uint256"
        }
      ],
      "payable": false,
      "stateMutability": "view",
      "type": "function"
    },
    {
      "constant": true,
      "inputs": [
        {
          "internalType": "uint256",
          "name": "Id",
          "type": "uint256"
        }
      ],
      "name": "getDoors",
      "outputs": [
        {
          "internalType": "uint256",
          "name": "",
          "type": "uint256"
        }
      ],
      "payable": false,
      "stateMutability": "view",
      "type": "function"
    },
    {
      "constant": true,
      "inputs": [
        {
          "internalType": "uint256",
          "name": "Id",
          "type": "uint256"
        }
      ],
      "name": "getDisplays",
      "outputs": [
        {
          "internalType": "uint256",
          "name": "",
          "type": "uint256"
        }
      ],
      "payable": false,
      "stateMutability": "view",
      "type": "function"
    },
    {
      "constant": true,
      "inputs": [],
      "name": "getComponeng",
      "outputs": [
        {
          "components": [
            {
              "internalType": "uint256",
              "name": "Id",
              "type": "uint256"
            },
            {
              "internalType": "uint256",
              "name": "ElevatorsShafts",
              "type": "uint256"
            },
            {
              "internalType": "uint256",
              "name": "Controllers",
              "type": "uint256"
            },
            {
              "internalType": "uint256",
              "name": "Buttons",
              "type": "uint256"
            },
            {
              "internalType": "uint256",
              "name": "Doors",
              "type": "uint256"
            },
            {
              "internalType": "uint256",
              "name": "Displays",
              "type": "uint256"
            }
          ],
          "internalType": "struct ProjectOffice.Components[]",
          "name": "",
          "type": "tuple[]"
        }
      ],
      "payable": false,
      "stateMutability": "view",
      "type": "function"
    }
  ],
  "bytecode": "0x6080604052600160025534801561001557600080fd5b5033600160006101000a81548173ffffffffffffffffffffffffffffffffffffffff021916908373ffffffffffffffffffffffffffffffffffffffff160217905550610946806100666000396000f3fe608060405234801561001057600080fd5b506004361061009e5760003560e01c806371ba71f51161006657806371ba71f51461016d5780639c557c43146101a2578063c739fbdc146101d2578063d744511e146101f0578063f7ed8e63146102205761009e565b806314cec06a146100a35780632804b2c0146100d35780634793afd4146100f1578063545a153a14610121578063606ce3bf14610151575b600080fd5b6100bd60048036036100b89190810190610614565b610250565b6040516100ca91906107fb565b60405180910390f35b6100db610277565b6040516100e891906107be565b60405180910390f35b61010b60048036036101069190810190610614565b61029d565b60405161011891906107fb565b60405180910390f35b61013b60048036036101369190810190610614565b6102c4565b60405161014891906107fb565b60405180910390f35b61016b6004803603610166919081019061063d565b6102eb565b005b61018760048036036101829190810190610614565b610425565b60405161019996959493929190610816565b60405180910390f35b6101bc60048036036101b79190810190610614565b61046e565b6040516101c991906107fb565b60405180910390f35b6101da610495565b6040516101e791906107d9565b60405180910390f35b61020a60048036036102059190810190610614565b610530565b60405161021791906107fb565b60405180910390f35b61023a60048036036102359190810190610614565b610557565b60405161024791906107fb565b60405180910390f35b600080828154811061025e57fe5b9060005260206000209060060201600301549050919050565b600160009054906101000a900473ffffffffffffffffffffffffffffffffffffffff1681565b60008082815481106102ab57fe5b9060005260206000209060060201600201549050919050565b60008082815481106102d257fe5b9060005260206000209060060201600001549050919050565b600080548091906001016102ff919061057e565b5060025460006001600080549050038154811061031857fe5b90600052602060002090600602016000018190555082820260006001600080549050038154811061034557fe5b9060005260206000209060060201600101819055508360006001600080549050038154811061037057fe5b9060005260206000209060060201600201819055506005810260006001600080549050038154811061039e57fe5b9060005260206000209060060201600301819055508281026000600160008054905003815481106103cb57fe5b9060005260206000209060060201600401819055508282026000600160008054905003815481106103f857fe5b90600052602060002090600602016005018190555060026000815480929190600101919050555050505050565b6000818154811061043257fe5b90600052602060002090600602016000915090508060000154908060010154908060020154908060030154908060040154908060050154905086565b600080828154811061047c57fe5b9060005260206000209060060201600501549050919050565b60606000805480602002602001604051908101604052809291908181526020016000905b8282101561052757838290600052602060002090600602016040518060c00160405290816000820154815260200160018201548152602001600282015481526020016003820154815260200160048201548152602001600582015481525050815260200190600101906104b9565b50505050905090565b600080828154811061053e57fe5b9060005260206000209060060201600401549050919050565b600080828154811061056557fe5b9060005260206000209060060201600101549050919050565b8154818355818111156105ab576006028160060283600052602060002091820191016105aa91906105b0565b5b505050565b6105fc91905b808211156105f85760008082016000905560018201600090556002820160009055600382016000905560048201600090556005820160009055506006016105b6565b5090565b90565b60008135905061060e816108ec565b92915050565b60006020828403121561062657600080fd5b6000610634848285016105ff565b91505092915050565b6000806000806080858703121561065357600080fd5b6000610661878288016105ff565b9450506020610672878288016105ff565b9350506040610683878288016105ff565b9250506060610694878288016105ff565b91505092959194509250565b60006106ac8383610725565b60c08301905092915050565b6106c1816108b0565b82525050565b60006106d282610887565b6106dc818561089f565b93506106e783610877565b8060005b838110156107185781516106ff88826106a0565b975061070a83610892565b9250506001810190506106eb565b5085935050505092915050565b60c08201600082015161073b60008501826107a0565b50602082015161074e60208501826107a0565b50604082015161076160408501826107a0565b50606082015161077460608501826107a0565b50608082015161078760808501826107a0565b5060a082015161079a60a08501826107a0565b50505050565b6107a9816108e2565b82525050565b6107b8816108e2565b82525050565b60006020820190506107d360008301846106b8565b92915050565b600060208201905081810360008301526107f381846106c7565b905092915050565b600060208201905061081060008301846107af565b92915050565b600060c08201905061082b60008301896107af565b61083860208301886107af565b61084560408301876107af565b61085260608301866107af565b61085f60808301856107af565b61086c60a08301846107af565b979650505050505050565b6000819050602082019050919050565b600081519050919050565b6000602082019050919050565b600082825260208201905092915050565b60006108bb826108c2565b9050919050565b600073ffffffffffffffffffffffffffffffffffffffff82169050919050565b6000819050919050565b6108f5816108e2565b811461090057600080fd5b5056fea365627a7a72315820e7d35f18b70f9bef222ab216bff25d4d1e1b537fc89f308b1d91cfe0325955676c6578706572696d656e74616cf564736f6c63430005100040",
  "source": "pragma solidity ^0.5.0;\npragma experimental ABIEncoderV2;\n\ncontract ProjectOffice {\n\n    Components[] public component;\n    address public customer;\n\n    struct Components{\n    uint Id;\n    uint ElevatorsShafts; // 8 = 2 columns * 4 elevators\n    uint Controllers; // 1 = 1 per battery\n    uint Buttons; //  25 = 5floors * 5 buttons\n    uint Doors; // 10 =1 per floor * columns\n    uint Displays; // 8 = 1 per elevator \n    }\n\n    constructor() public {\n        customer = msg.sender;\n    }\n    uint nextComponentId =1; \n\n    function set(uint Batteries, uint Columns, uint Elevators, uint Floors) public\n    {   \n        component.length++;\n        component[component.length-1].Id = nextComponentId;\n        component[component.length-1].ElevatorsShafts = Elevators * Columns;\n        component[component.length-1].Controllers = Batteries;\n        component[component.length-1].Buttons = (Floors * 5);\n        component[component.length-1].Doors = Floors * Columns;\n        component[component.length-1].Displays = Elevators * Columns;\n        nextComponentId++;\n    }\n\n    //   function addOrder(uint _shafts,uint _controllers,uint _buttons,uint _doors,uint _displays) public returns(uint)\n    // {   \n    //     component.length++;\n    //     component[component.length-1].ElevatorsShafts = _shafts;\n    //     component[component.length-1].Controllers = _controllers;\n    //     component[component.length-1].Buttons = _buttons;\n    //     component[component.length-1].Doors = _doors;\n    //     component[component.length-1].Displays = _displays;\n    //     return component.length;\n    // }\n\n\n     function getId(uint Id) public view returns(uint){\n        return component[Id].Id;\n    }\n\n    function getElevatorsShafts(uint Id) public view returns(uint){\n        return component[Id].ElevatorsShafts;\n    }\n\n    function getControllers(uint Id) public view returns(uint){\n        return component[Id].Controllers;\n    }\n    function getButtons(uint Id) public view returns(uint){\n        return component[Id].Buttons;\n    }\n    function getDoors(uint Id) public view returns(uint){\n        return component[Id].Doors;\n    }\n    function getDisplays(uint Id) public view returns(uint){\n        return component[Id].Displays;\n    }\n\n     function getComponeng() public view returns(Components[] memory)\n    {\n        return component;\n    }  \n}",
  "sourcePath": "/Users/gabrielrioux/Rocket_Elevators_Blockchain/contracts/ProjectOffice.sol",
  "compiler": {
    "name": "solc",
    "version": "0.5.16+commit.9c3226ce.Emscripten.clang"
  },
  "schemaVersion": "3.3.4",
  "updatedAt": "2021-04-14T19:09:52.503Z",
  "devdoc": {
    "methods": {}
  },
  "userdoc": {
    "methods": {}
  }
}