{
  "contractName": "ProjectOffice",
  "abi": [
    {
      "inputs": [],
      "payable": false,
      "stateMutability": "nonpayable",
      "type": "constructor"
    },
    {
      "constant": true,
      "inputs": [
        {
          "internalType": "uint256",
          "name": "",
          "type": "uint256"
        }
      ],
      "name": "component",
      "outputs": [
        {
          "internalType": "uint256",
          "name": "Id",
          "type": "uint256"
        },
        {
          "internalType": "uint256",
          "name": "ElevatorsShafts",
          "type": "uint256"
        },
        {
          "internalType": "uint256",
          "name": "Controllers",
          "type": "uint256"
        },
        {
          "internalType": "uint256",
          "name": "Buttons",
          "type": "uint256"
        },
        {
          "internalType": "uint256",
          "name": "Doors",
          "type": "uint256"
        },
        {
          "internalType": "uint256",
          "name": "Displays",
          "type": "uint256"
        }
      ],
      "payable": false,
      "stateMutability": "view",
      "type": "function"
    },
    {
      "constant": true,
      "inputs": [],
      "name": "customer",
      "outputs": [
        {
          "internalType": "address",
          "name": "",
          "type": "address"
        }
      ],
      "payable": false,
      "stateMutability": "view",
      "type": "function"
    },
    {
      "constant": false,
      "inputs": [
        {
          "internalType": "uint256",
          "name": "Batteries",
          "type": "uint256"
        },
        {
          "internalType": "uint256",
          "name": "Columns",
          "type": "uint256"
        },
        {
          "internalType": "uint256",
          "name": "Elevators",
          "type": "uint256"
        },
        {
          "internalType": "uint256",
          "name": "Floors",
          "type": "uint256"
        }
      ],
      "name": "set",
      "outputs": [],
      "payable": false,
      "stateMutability": "nonpayable",
      "type": "function"
    },
    {
      "constant": true,
      "inputs": [],
      "name": "componentCount",
      "outputs": [
        {
          "internalType": "uint256",
          "name": "",
          "type": "uint256"
        }
      ],
      "payable": false,
      "stateMutability": "view",
      "type": "function"
    },
    {
      "constant": true,
      "inputs": [
        {
          "internalType": "uint256",
          "name": "index",
          "type": "uint256"
        }
      ],
      "name": "getComponent",
      "outputs": [
        {
          "internalType": "uint256",
          "name": "",
          "type": "uint256"
        },
        {
          "internalType": "uint256",
          "name": "",
          "type": "uint256"
        },
        {
          "internalType": "uint256",
          "name": "",
          "type": "uint256"
        },
        {
          "internalType": "uint256",
          "name": "",
          "type": "uint256"
        },
        {
          "internalType": "uint256",
          "name": "",
          "type": "uint256"
        },
        {
          "internalType": "uint256",
          "name": "",
          "type": "uint256"
        }
      ],
      "payable": false,
      "stateMutability": "view",
      "type": "function"
    }
  ],
  "bytecode": "0x60806040526001600255600060035534801561001a57600080fd5b5033600160006101000a81548173ffffffffffffffffffffffffffffffffffffffff021916908373ffffffffffffffffffffffffffffffffffffffff1602179055506104998061006b6000396000f3fe608060405234801561001057600080fd5b50600436106100575760003560e01c80631fe26e9d1461005c5780632804b2c01461007a5780634f27da18146100c4578063606ce3bf1461012957806371ba71f514610175575b600080fd5b6100646101da565b6040518082815260200191505060405180910390f35b6100826101e4565b604051808273ffffffffffffffffffffffffffffffffffffffff1673ffffffffffffffffffffffffffffffffffffffff16815260200191505060405180910390f35b6100f0600480360360208110156100da57600080fd5b810190808035906020019092919050505061020a565b60405180878152602001868152602001858152602001848152602001838152602001828152602001965050505050505060405180910390f35b6101736004803603608081101561013f57600080fd5b81019080803590602001909291908035906020019092919080359060200190929190803590602001909291905050506102e2565b005b6101a16004803603602081101561018b57600080fd5b810190808035906020019092919050505061041b565b60405180878152602001868152602001858152602001848152602001838152602001828152602001965050505050505060405180910390f35b6000600354905090565b600160009054906101000a900473ffffffffffffffffffffffffffffffffffffffff1681565b6000806000806000806000878154811061022057fe5b9060005260206000209060060201600001546000888154811061023f57fe5b9060005260206000209060060201600101546000898154811061025e57fe5b90600052602060002090600602016002015460008a8154811061027d57fe5b90600052602060002090600602016003015460008b8154811061029c57fe5b90600052602060002090600602016004015460008c815481106102bb57fe5b90600052602060002090600602016005015495509550955095509550955091939550919395565b6002546000600160008054905003815481106102fa57fe5b9060005260206000209060060201600001819055508160006001600080549050038154811061032557fe5b9060005260206000209060060201600101819055508360006001600080549050038154811061035057fe5b906000526020600020906006020160020181905550826001820382020260006001600080549050038154811061038257fe5b9060005260206000209060060201600301819055508281026000600160008054905003815481106103af57fe5b9060005260206000209060060201600401819055508082026000600160008054905003815481106103dc57fe5b90600052602060002090600602016005018190555060036000815480929190600101919050555060026000815480929190600101919050555050505050565b6000818154811061042857fe5b9060005260206000209060060201600091509050806000015490806001015490806002015490806003015490806004015490806005015490508656fea265627a7a72315820b96381a5a5433d2d126bd99cc7c9d0a2c9d150e7d891964df3316313711cdda064736f6c63430005100032",
  "source": "pragma solidity ^0.5.0;\n\ncontract ProjectOffice {\n    Components[] public component;\n    address public customer;\n\n    struct Components {\n        uint256 Id;\n        uint256 ElevatorsShafts; // 8 = 2 columns * 4 elevators\n        uint256 Controllers; // 1 = 1 per battery\n        uint256 Buttons; //  25 = 5floors * 5 buttons\n        uint256 Doors; // 10 =1 per floor * columns\n        uint256 Displays; // 8 = 1 per elevator\n    }\n\n    constructor() public {\n        customer = msg.sender;\n    }\n\n    uint256 orderId = 1;\n    uint256 count = 0;\n    function set(\n        uint256 Batteries,\n        uint256 Columns,\n        uint256 Elevators,\n        uint256 Floors\n    ) public {\n        component[component.length - 1].Id = orderId;\n        component[component.length - 1].ElevatorsShafts = Elevators;\n        component[component.length - 1].Controllers = Batteries;\n        component[component.length - 1].Buttons = (Floors * (Floors-1) * Columns);\n        component[component.length - 1].Doors = Floors * Columns;\n        component[component.length - 1].Displays = Elevators * Floors;\n        count++;\n        orderId++;\n    }\n\n    //   function addOrder(uint _shafts,uint _controllers,uint _buttons,uint _doors,uint _displays) public returns(uint)\n    // {\n    //     component.length++;\n    //     component[component.length-1].ElevatorsShafts = _shafts;\n    //     component[component.length-1].Controllers = _controllers;\n    //     component[component.length-1].Buttons = _buttons;\n    //     component[component.length-1].Doors = _doors;\n    //     component[component.length-1].Displays = _displays;\n    //     return component.length;\n    // }\n\n    function componentCount() public view returns (uint256) {\n        return count;\n    }\n\n     function getComponent(uint index) public view returns (uint, uint, uint, uint, uint, uint) {\n        return (\n            component[index].Id,\n            component[index].ElevatorsShafts,\n            component[index].Controllers,\n            component[index].Buttons,\n            component[index].Doors,\n            component[index].Displays);\n    }\n}\n",
  "sourcePath": "/Users/gabrielrioux/Rocket_Elevators_Blockchain/contracts/ProjectOffice.sol",
  "compiler": {
    "name": "solc",
    "version": "0.5.16+commit.9c3226ce.Emscripten.clang"
  },
  "schemaVersion": "3.3.4",
  "updatedAt": "2021-04-15T18:39:55.813Z",
  "networkType": "ethereum",
  "devdoc": {
    "methods": {}
  },
  "userdoc": {
    "methods": {}
  }
}