{
  "contractName": "ProjectOffice2",
  "abi": [
    {
      "inputs": [],
      "payable": false,
      "stateMutability": "nonpayable",
      "type": "constructor"
    },
    {
      "constant": true,
      "inputs": [
        {
          "internalType": "uint256",
          "name": "",
          "type": "uint256"
        }
      ],
      "name": "component",
      "outputs": [
        {
          "internalType": "uint64",
          "name": "ElevatorsShafts",
          "type": "uint64"
        },
        {
          "internalType": "uint64",
          "name": "Controllers",
          "type": "uint64"
        },
        {
          "internalType": "uint64",
          "name": "Buttons",
          "type": "uint64"
        },
        {
          "internalType": "uint64",
          "name": "Doors",
          "type": "uint64"
        },
        {
          "internalType": "uint64",
          "name": "Displays",
          "type": "uint64"
        }
      ],
      "payable": false,
      "stateMutability": "view",
      "type": "function"
    },
    {
      "constant": true,
      "inputs": [],
      "name": "customer",
      "outputs": [
        {
          "internalType": "address",
          "name": "",
          "type": "address"
        }
      ],
      "payable": false,
      "stateMutability": "view",
      "type": "function"
    },
    {
      "constant": false,
      "inputs": [
        {
          "internalType": "uint64",
          "name": "_shafts",
          "type": "uint64"
        },
        {
          "internalType": "uint64",
          "name": "_controllers",
          "type": "uint64"
        },
        {
          "internalType": "uint64",
          "name": "_buttons",
          "type": "uint64"
        },
        {
          "internalType": "uint64",
          "name": "_doors",
          "type": "uint64"
        },
        {
          "internalType": "uint64",
          "name": "_displays",
          "type": "uint64"
        }
      ],
      "name": "addOrder",
      "outputs": [
        {
          "internalType": "uint256",
          "name": "",
          "type": "uint256"
        }
      ],
      "payable": false,
      "stateMutability": "nonpayable",
      "type": "function"
    },
    {
      "constant": true,
      "inputs": [],
      "name": "componentCount",
      "outputs": [
        {
          "internalType": "uint256",
          "name": "",
          "type": "uint256"
        }
      ],
      "payable": false,
      "stateMutability": "view",
      "type": "function"
    }
  ],
  "bytecode": "0x608060405234801561001057600080fd5b5033600160006101000a81548173ffffffffffffffffffffffffffffffffffffffff021916908373ffffffffffffffffffffffffffffffffffffffff16021790555061068b806100616000396000f3fe608060405234801561001057600080fd5b506004361061004c5760003560e01c80631fe26e9d146100515780632804b2c01461006f5780633426d2c81461008d57806371ba71f5146100bd575b600080fd5b6100596100f1565b604051610066919061055c565b60405180910390f35b6100776100fd565b6040516100849190610541565b60405180910390f35b6100a760048036036100a2919081019061049d565b610123565b6040516100b4919061055c565b60405180910390f35b6100d760048036036100d29190810190610474565b6102cb565b6040516100e8959493929190610577565b60405180910390f35b60008080549050905090565b600160009054906101000a900473ffffffffffffffffffffffffffffffffffffffff1681565b60008080548091906001016101389190610372565b508560006001600080549050038154811061014f57fe5b906000526020600020906002020160000160006101000a81548167ffffffffffffffff021916908367ffffffffffffffff1602179055508460006001600080549050038154811061019c57fe5b906000526020600020906002020160000160086101000a81548167ffffffffffffffff021916908367ffffffffffffffff160217905550836000600160008054905003815481106101e957fe5b906000526020600020906002020160000160106101000a81548167ffffffffffffffff021916908367ffffffffffffffff1602179055508260006001600080549050038154811061023657fe5b906000526020600020906002020160000160186101000a81548167ffffffffffffffff021916908367ffffffffffffffff1602179055508160006001600080549050038154811061028357fe5b906000526020600020906002020160010160006101000a81548167ffffffffffffffff021916908367ffffffffffffffff160217905550600080549050905095945050505050565b600081815481106102d857fe5b90600052602060002090600202016000915090508060000160009054906101000a900467ffffffffffffffff16908060000160089054906101000a900467ffffffffffffffff16908060000160109054906101000a900467ffffffffffffffff16908060000160189054906101000a900467ffffffffffffffff16908060010160009054906101000a900467ffffffffffffffff16905085565b81548183558181111561039f5760020281600202836000526020600020918201910161039e91906103a4565b5b505050565b61044791905b8082111561044357600080820160006101000a81549067ffffffffffffffff02191690556000820160086101000a81549067ffffffffffffffff02191690556000820160106101000a81549067ffffffffffffffff02191690556000820160186101000a81549067ffffffffffffffff02191690556001820160006101000a81549067ffffffffffffffff0219169055506002016103aa565b5090565b90565b6000813590506104598161061a565b92915050565b60008135905061046e81610631565b92915050565b60006020828403121561048657600080fd5b60006104948482850161044a565b91505092915050565b600080600080600060a086880312156104b557600080fd5b60006104c38882890161045f565b95505060206104d48882890161045f565b94505060406104e58882890161045f565b93505060606104f68882890161045f565b92505060806105078882890161045f565b9150509295509295909350565b61051d816105ca565b82525050565b61052c816105fc565b82525050565b61053b81610606565b82525050565b60006020820190506105566000830184610514565b92915050565b60006020820190506105716000830184610523565b92915050565b600060a08201905061058c6000830188610532565b6105996020830187610532565b6105a66040830186610532565b6105b36060830185610532565b6105c06080830184610532565b9695505050505050565b60006105d5826105dc565b9050919050565b600073ffffffffffffffffffffffffffffffffffffffff82169050919050565b6000819050919050565b600067ffffffffffffffff82169050919050565b610623816105fc565b811461062e57600080fd5b50565b61063a81610606565b811461064557600080fd5b5056fea365627a7a723158201c6fd09b80db1c22fa9125878f86ba7a4a8fe51b5a04b701cf8fea53011b2a8e6c6578706572696d656e74616cf564736f6c63430005100040",
  "source": "pragma solidity ^0.5.0;\npragma experimental ABIEncoderV2;\n\ncontract ProjectOffice2 {\n\n    Components[] public component;\n    address public customer;\n\n    struct Components{\n    uint64 ElevatorsShafts; // 8 = 2 columns * 4 elevators\n    uint64 Controllers; // 1 = 1 per battery\n    uint64 Buttons; //  25 = 5floors * 5 buttons\n    uint64 Doors; // 10 =1 per floor * columns\n    uint64 Displays; // 8 = 1 per elevator \n    }\n\n    constructor() public {\n        customer = msg.sender;\n    }\n\n     function addOrder(uint64 _shafts,uint64 _controllers,uint64 _buttons,uint64 _doors,uint64 _displays) public returns(uint256)\n    {   \n        component.length++;\n        component[component.length-1].ElevatorsShafts = _shafts;\n        component[component.length-1].Controllers = _controllers;\n        component[component.length-1].Buttons = _buttons;\n        component[component.length-1].Doors = _doors;\n        component[component.length-1].Displays = _displays;\n        return component.length;\n    }\n\n     function componentCount() public view returns(uint){\n        return component.length;\n    }\n\n    //  function get() public view returns(Components[] memory)\n    // {\n    //     return component;\n    // }  \n}",
  "sourcePath": "/Users/gabrielrioux/Rocket_Elevators_Blockchain/contracts/projectOffice2.sol",
  "compiler": {
    "name": "solc",
    "version": "0.5.16+commit.9c3226ce.Emscripten.clang"
  },
  "schemaVersion": "3.3.4",
  "updatedAt": "2021-04-14T16:40:05.043Z",
  "devdoc": {
    "methods": {}
  },
  "userdoc": {
    "methods": {}
  }
}