{
  "contractName": "ProjectOffice",
  "abi": [
    {
      "inputs": [],
      "payable": false,
      "stateMutability": "nonpayable",
      "type": "constructor"
    },
    {
      "constant": true,
      "inputs": [
        {
          "internalType": "uint256",
          "name": "",
          "type": "uint256"
        }
      ],
      "name": "component",
      "outputs": [
        {
          "internalType": "uint256",
          "name": "Id",
          "type": "uint256"
        },
        {
          "internalType": "uint256",
          "name": "ElevatorsShafts",
          "type": "uint256"
        },
        {
          "internalType": "uint256",
          "name": "Controllers",
          "type": "uint256"
        },
        {
          "internalType": "uint256",
          "name": "Buttons",
          "type": "uint256"
        },
        {
          "internalType": "uint256",
          "name": "Doors",
          "type": "uint256"
        },
        {
          "internalType": "uint256",
          "name": "Displays",
          "type": "uint256"
        }
      ],
      "payable": false,
      "stateMutability": "view",
      "type": "function"
    },
    {
      "constant": true,
      "inputs": [],
      "name": "customer",
      "outputs": [
        {
          "internalType": "address",
          "name": "",
          "type": "address"
        }
      ],
      "payable": false,
      "stateMutability": "view",
      "type": "function"
    },
    {
      "constant": false,
      "inputs": [
        {
          "internalType": "uint256",
          "name": "Batteries",
          "type": "uint256"
        },
        {
          "internalType": "uint256",
          "name": "Columns",
          "type": "uint256"
        },
        {
          "internalType": "uint256",
          "name": "Elevators",
          "type": "uint256"
        },
        {
          "internalType": "uint256",
          "name": "Floors",
          "type": "uint256"
        }
      ],
      "name": "set",
      "outputs": [],
      "payable": false,
      "stateMutability": "nonpayable",
      "type": "function"
    },
    {
      "constant": true,
      "inputs": [],
      "name": "componentCount",
      "outputs": [
        {
          "internalType": "uint256",
          "name": "",
          "type": "uint256"
        }
      ],
      "payable": false,
      "stateMutability": "view",
      "type": "function"
    },
    {
      "constant": true,
      "inputs": [
        {
          "internalType": "uint256",
          "name": "index",
          "type": "uint256"
        }
      ],
      "name": "getComponent",
      "outputs": [
        {
          "internalType": "uint256",
          "name": "",
          "type": "uint256"
        },
        {
          "internalType": "uint256",
          "name": "",
          "type": "uint256"
        },
        {
          "internalType": "uint256",
          "name": "",
          "type": "uint256"
        },
        {
          "internalType": "uint256",
          "name": "",
          "type": "uint256"
        },
        {
          "internalType": "uint256",
          "name": "",
          "type": "uint256"
        },
        {
          "internalType": "uint256",
          "name": "",
          "type": "uint256"
        }
      ],
      "payable": false,
      "stateMutability": "view",
      "type": "function"
    },
    {
      "constant": true,
      "inputs": [],
      "name": "getAddress",
      "outputs": [
        {
          "internalType": "address",
          "name": "",
          "type": "address"
        }
      ],
      "payable": false,
      "stateMutability": "view",
      "type": "function"
    }
  ],
  "bytecode": "0x60806040526001600255600060035534801561001a57600080fd5b506104f68061002a6000396000f3fe608060405234801561001057600080fd5b50600436106100625760003560e01c80631fe26e9d146100675780632804b2c01461008557806338cc4831146100cf5780634f27da1814610119578063606ce3bf1461017e57806371ba71f5146101ca575b600080fd5b61006f61022f565b6040518082815260200191505060405180910390f35b61008d610239565b604051808273ffffffffffffffffffffffffffffffffffffffff1673ffffffffffffffffffffffffffffffffffffffff16815260200191505060405180910390f35b6100d761025f565b604051808273ffffffffffffffffffffffffffffffffffffffff1673ffffffffffffffffffffffffffffffffffffffff16815260200191505060405180910390f35b6101456004803603602081101561012f57600080fd5b8101908080359060200190929190505050610267565b60405180878152602001868152602001858152602001848152602001838152602001828152602001965050505050505060405180910390f35b6101c86004803603608081101561019457600080fd5b810190808035906020019092919080359060200190929190803590602001909291908035906020019092919050505061033f565b005b6101f6600480360360208110156101e057600080fd5b8101908080359060200190929190505050610478565b60405180878152602001868152602001858152602001848152602001838152602001828152602001965050505050505060405180910390f35b6000600354905090565b600160009054906101000a900473ffffffffffffffffffffffffffffffffffffffff1681565b600033905090565b6000806000806000806000878154811061027d57fe5b9060005260206000209060060201600001546000888154811061029c57fe5b906000526020600020906006020160010154600089815481106102bb57fe5b90600052602060002090600602016002015460008a815481106102da57fe5b90600052602060002090600602016003015460008b815481106102f957fe5b90600052602060002090600602016004015460008c8154811061031857fe5b90600052602060002090600602016005015495509550955095509550955091939550919395565b60025460006001600080549050038154811061035757fe5b9060005260206000209060060201600001819055508160006001600080549050038154811061038257fe5b906000526020600020906006020160010181905550836000600160008054905003815481106103ad57fe5b90600052602060002090600602016002018190555082600182038202026000600160008054905003815481106103df57fe5b90600052602060002090600602016003018190555082810260006001600080549050038154811061040c57fe5b90600052602060002090600602016004018190555080820260006001600080549050038154811061043957fe5b90600052602060002090600602016005018190555060036000815480929190600101919050555060026000815480929190600101919050555050505050565b6000818154811061048557fe5b9060005260206000209060060201600091509050806000015490806001015490806002015490806003015490806004015490806005015490508656fea265627a7a72315820a88e535ca61d4be28bcf49ab01837bbffdc62c14b17b4a854573ad59b6cfd83e64736f6c63430005100032",
  "source": "pragma solidity ^0.5.0;\n\ncontract ProjectOffice {\n    Components[] public component;\n    address public customer;\n\n    struct Components {\n        uint256 Id;\n        uint256 ElevatorsShafts; // 8 = 2 columns * 4 elevators\n        uint256 Controllers; // 1 = 1 per battery\n        uint256 Buttons; //  25 = 5floors * 5 buttons\n        uint256 Doors; // 10 =1 per floor * columns\n        uint256 Displays; // 8 = 1 per elevator\n    }\n\n    constructor() public {}\n\n    uint256 orderId = 1;\n    uint256 count = 0;\n\n    function set(\n        uint256 Batteries,\n        uint256 Columns,\n        uint256 Elevators,\n        uint256 Floors\n    ) public {\n        component[component.length - 1].Id = orderId;\n        component[component.length - 1].ElevatorsShafts = Elevators;\n        component[component.length - 1].Controllers = Batteries;\n        component[component.length - 1].Buttons = (Floors *\n            (Floors - 1) *\n            Columns);\n        component[component.length - 1].Doors = Floors * Columns;\n        component[component.length - 1].Displays = Elevators * Floors;\n        count++;\n        orderId++;\n    }\n\n    //   function addOrder(uint _shafts,uint _controllers,uint _buttons,uint _doors,uint _displays) public returns(uint)\n    // {\n    //     component.length++;\n    //     component[component.length-1].ElevatorsShafts = _shafts;\n    //     component[component.length-1].Controllers = _controllers;\n    //     component[component.length-1].Buttons = _buttons;\n    //     component[component.length-1].Doors = _doors;\n    //     component[component.length-1].Displays = _displays;\n    //     return component.length;\n    // }\n\n    function componentCount() public view returns (uint256) {\n        return count;\n    }\n\n    function getComponent(uint256 index)\n        public\n        view\n        returns (\n            uint256,\n            uint256,\n            uint256,\n            uint256,\n            uint256,\n            uint256\n        )\n    {\n        return (\n            component[index].Id,\n            component[index].ElevatorsShafts,\n            component[index].Controllers,\n            component[index].Buttons,\n            component[index].Doors,\n            component[index].Displays\n        );\n    }\n\n    function getAddress() public view returns (address) {\n        return msg.sender;\n    }\n}\n",
  "sourcePath": "/home/emtl688/leader/Rocket_Elevators_Blockchain/contracts/ProjectOffice.sol",
  "compiler": {
    "name": "solc",
    "version": "0.5.16+commit.9c3226ce.Emscripten.clang"
  },
  "schemaVersion": "3.3.4",
  "updatedAt": "2021-04-16T04:10:13.056Z",
  "networkType": "ethereum",
  "devdoc": {
    "methods": {}
  },
  "userdoc": {
    "methods": {}
  }
}