{
  "contractName": "QualityControl",
  "abi": [
    {
      "constant": false,
      "inputs": [
        {
          "internalType": "bytes32",
          "name": "doorTest",
          "type": "bytes32"
        },
        {
          "internalType": "bytes32",
          "name": "cableTest",
          "type": "bytes32"
        },
        {
          "internalType": "bytes32",
          "name": "brakeTest",
          "type": "bytes32"
        },
        {
          "internalType": "bytes32",
          "name": "batteryPermit",
          "type": "bytes32"
        },
        {
          "internalType": "bytes32",
          "name": "certificate",
          "type": "bytes32"
        }
      ],
      "name": "qualCheck",
      "outputs": [
        {
          "components": [
            {
              "internalType": "bytes32",
              "name": "doorTest",
              "type": "bytes32"
            },
            {
              "internalType": "bytes32",
              "name": "cableTest",
              "type": "bytes32"
            },
            {
              "internalType": "bytes32",
              "name": "brakeTest",
              "type": "bytes32"
            },
            {
              "internalType": "bytes32",
              "name": "batteryPermit",
              "type": "bytes32"
            },
            {
              "internalType": "bytes32",
              "name": "certificate",
              "type": "bytes32"
            }
          ],
          "internalType": "struct QualityControl.Quality",
          "name": "",
          "type": "tuple"
        }
      ],
      "payable": false,
      "stateMutability": "nonpayable",
      "type": "function"
    },
    {
      "constant": true,
      "inputs": [],
      "name": "retrive",
      "outputs": [
        {
          "components": [
            {
              "internalType": "bytes32",
              "name": "doorTest",
              "type": "bytes32"
            },
            {
              "internalType": "bytes32",
              "name": "cableTest",
              "type": "bytes32"
            },
            {
              "internalType": "bytes32",
              "name": "brakeTest",
              "type": "bytes32"
            },
            {
              "internalType": "bytes32",
              "name": "batteryPermit",
              "type": "bytes32"
            },
            {
              "internalType": "bytes32",
              "name": "certificate",
              "type": "bytes32"
            }
          ],
          "internalType": "struct QualityControl.Quality",
          "name": "",
          "type": "tuple"
        }
      ],
      "payable": false,
      "stateMutability": "view",
      "type": "function"
    }
  ],
  "bytecode": "0x608060405234801561001057600080fd5b50610318806100206000396000f3fe608060405234801561001057600080fd5b50600436106100365760003560e01c80630de68d331461003b578063a6b7fc5b1461006b575b600080fd5b610055600480360361005091908101906101ab565b610089565b6040516100629190610299565b60405180910390f35b61007361010c565b6040516100809190610299565b60405180910390f35b610091610158565b8560008001819055508460006001018190555083600060020181905550826000600301819055508160006004018190555060006040518060a001604052908160008201548152602001600182015481526020016002820154815260200160038201548152602001600482015481525050905095945050505050565b610114610158565b60006040518060a001604052908160008201548152602001600182015481526020016002820154815260200160038201548152602001600482015481525050905090565b6040518060a0016040528060008019168152602001600080191681526020016000801916815260200160008019168152602001600080191681525090565b6000813590506101a5816102be565b92915050565b600080600080600060a086880312156101c357600080fd5b60006101d188828901610196565b95505060206101e288828901610196565b94505060406101f388828901610196565b935050606061020488828901610196565b925050608061021588828901610196565b9150509295509295909350565b61022b816102b4565b82525050565b60a0820160008201516102476000850182610222565b50602082015161025a6020850182610222565b50604082015161026d6040850182610222565b5060608201516102806060850182610222565b5060808201516102936080850182610222565b50505050565b600060a0820190506102ae6000830184610231565b92915050565b6000819050919050565b6102c7816102b4565b81146102d257600080fd5b5056fea365627a7a72315820630dc1c1eb57d377d0bd6c6881a6000b137800096b16d14ce0fd7d709ed5ba736c6578706572696d656e74616cf564736f6c63430005100040",
  "source": "pragma solidity ^0.5.0;\npragma experimental ABIEncoderV2;\n\ncontract QualityControl {\n    Quality qual;\n    struct Quality {\n        bytes32 doorTest;\n        bytes32 cableTest;\n        bytes32 brakeTest;\n        bytes32 batteryPermit;\n        bytes32 certificate;\n    }\n\n    //Calcul material base on input component\n    function qualCheck(\n        bytes32 doorTest,\n        bytes32 cableTest,\n        bytes32 brakeTest,\n        bytes32 batteryPermit,\n        bytes32 certificate\n    ) public returns (Quality memory) {\n        qual.doorTest = doorTest;\n        qual.cableTest = cableTest;\n        qual.brakeTest = brakeTest;\n        qual.batteryPermit = batteryPermit;\n        qual.certificate = certificate;\n        return qual;\n    }\n\n    //Retrieving the value\n    function retrive() public view returns (Quality memory) {\n        return qual;\n    }\n}\n",
  "sourcePath": "/Users/gabrielrioux/Rocket_Elevators_Blockchain/contracts/QualityControl.sol",
  "compiler": {
    "name": "solc",
    "version": "0.5.16+commit.9c3226ce.Emscripten.clang"
  },
  "schemaVersion": "3.3.4",
  "updatedAt": "2021-04-16T18:03:45.204Z",
  "networkType": "ethereum",
  "devdoc": {
    "methods": {}
  },
  "userdoc": {
    "methods": {}
  }
}