{
  "contractName": "QualityControl",
  "abi": [
    {
      "constant": false,
      "inputs": [
        {
          "internalType": "bool",
          "name": "isPassed",
          "type": "bool"
        }
      ],
      "name": "validateDoor",
      "outputs": [],
      "payable": false,
      "stateMutability": "nonpayable",
      "type": "function"
    },
    {
      "constant": false,
      "inputs": [
        {
          "internalType": "bool",
          "name": "isPassed",
          "type": "bool"
        }
      ],
      "name": "validateCable",
      "outputs": [],
      "payable": false,
      "stateMutability": "nonpayable",
      "type": "function"
    },
    {
      "constant": false,
      "inputs": [
        {
          "internalType": "bool",
          "name": "isPassed",
          "type": "bool"
        }
      ],
      "name": "validateBrake",
      "outputs": [],
      "payable": false,
      "stateMutability": "nonpayable",
      "type": "function"
    },
    {
      "constant": false,
      "inputs": [
        {
          "internalType": "string",
          "name": "permitNumber",
          "type": "string"
        }
      ],
      "name": "addPermit",
      "outputs": [],
      "payable": false,
      "stateMutability": "nonpayable",
      "type": "function"
    },
    {
      "constant": false,
      "inputs": [
        {
          "internalType": "string",
          "name": "certificateNumber",
          "type": "string"
        }
      ],
      "name": "addCertificate",
      "outputs": [],
      "payable": false,
      "stateMutability": "nonpayable",
      "type": "function"
    },
    {
      "constant": true,
      "inputs": [],
      "name": "getTest",
      "outputs": [
        {
          "internalType": "bool",
          "name": "",
          "type": "bool"
        },
        {
          "internalType": "bool",
          "name": "",
          "type": "bool"
        },
        {
          "internalType": "bool",
          "name": "",
          "type": "bool"
        },
        {
          "internalType": "string",
          "name": "",
          "type": "string"
        },
        {
          "internalType": "string",
          "name": "",
          "type": "string"
        }
      ],
      "payable": false,
      "stateMutability": "view",
      "type": "function"
    }
  ],
  "bytecode": "0x60806040526040518060a00160405280600015158152602001600015158152602001600015158152602001604051806020016040528060008152508152602001604051806020016040528060008152508152506000808201518160000160006101000a81548160ff02191690831515021790555060208201518160000160016101000a81548160ff02191690831515021790555060408201518160000160026101000a81548160ff02191690831515021790555060608201518160010190805190602001906100cf929190610101565b5060808201518160020190805190602001906100ec929190610101565b5050503480156100fb57600080fd5b506101a6565b828054600181600116156101000203166002900490600052602060002090601f016020900481019282601f1061014257805160ff1916838001178555610170565b82800160010185558215610170579182015b8281111561016f578251825591602001919060010190610154565b5b50905061017d9190610181565b5090565b6101a391905b8082111561019f576000816000905550600101610187565b5090565b90565b61067f806101b56000396000f3fe608060405234801561001057600080fd5b50600436106100625760003560e01c80630a99e4f8146100675780634e3c6449146101225780636b52b4ca14610152578063a8cd0a8014610182578063addc983914610292578063b23a10971461034d575b600080fd5b6101206004803603602081101561007d57600080fd5b810190808035906020019064010000000081111561009a57600080fd5b8201836020820111156100ac57600080fd5b803590602001918460018302840111640100000000831117156100ce57600080fd5b91908080601f016020809104026020016040519081016040528093929190818152602001838380828437600081840152601f19601f82011690508083019250505050505050919291929050505061037d565b005b6101506004803603602081101561013857600080fd5b8101908080351515906020019092919050505061039a565b005b6101806004803603602081101561016857600080fd5b810190808035151590602001909291905050506103b9565b005b61018a6103d8565b604051808615151515815260200185151515158152602001841515151581526020018060200180602001838103835285818151815260200191508051906020019080838360005b838110156101ec5780820151818401526020810190506101d1565b50505050905090810190601f1680156102195780820380516001836020036101000a031916815260200191505b50838103825284818151815260200191508051906020019080838360005b83811015610252578082015181840152602081019050610237565b50505050905090810190601f16801561027f5780820380516001836020036101000a031916815260200191505b5097505050505050505060405180910390f35b61034b600480360360208110156102a857600080fd5b81019080803590602001906401000000008111156102c557600080fd5b8201836020820111156102d757600080fd5b803590602001918460018302840111640100000000831117156102f957600080fd5b91908080601f016020809104026020016040519081016040528093929190818152602001838380828437600081840152601f19601f820116905080830192505050505050509192919290505050610569565b005b61037b6004803603602081101561036357600080fd5b81019080803515159060200190929190505050610586565b005b80600060020190805190602001906103969291906105a5565b5050565b806000800160016101000a81548160ff02191690831515021790555050565b806000800160026101000a81548160ff02191690831515021790555050565b60008060006060806000800160009054906101000a900460ff166000800160019054906101000a900460ff166000800160029054906101000a900460ff1660006001016000600201818054600181600116156101000203166002900480601f0160208091040260200160405190810160405280929190818152602001828054600181600116156101000203166002900480156104b55780601f1061048a576101008083540402835291602001916104b5565b820191906000526020600020905b81548152906001019060200180831161049857829003601f168201915b50505050509150808054600181600116156101000203166002900480601f0160208091040260200160405190810160405280929190818152602001828054600181600116156101000203166002900480156105515780601f1061052657610100808354040283529160200191610551565b820191906000526020600020905b81548152906001019060200180831161053457829003601f168201915b50505050509050945094509450945094509091929394565b80600060010190805190602001906105829291906105a5565b5050565b806000800160006101000a81548160ff02191690831515021790555050565b828054600181600116156101000203166002900490600052602060002090601f016020900481019282601f106105e657805160ff1916838001178555610614565b82800160010185558215610614579182015b828111156106135782518255916020019190600101906105f8565b5b5090506106219190610625565b5090565b61064791905b8082111561064357600081600090555060010161062b565b5090565b9056fea265627a7a72315820aa094386b5a32a31204a5d7bc81c15d03f05f88f56038c06d1296ec4b97f497f64736f6c63430005100032",
  "source": "pragma solidity ^0.5.0;\n\ncontract QualityControl {\n    struct Test {\n        bool door;\n        bool cable;\n        bool brake;\n        string perm;\n        string certificate;\n    }\n\n    Test newTest = Test(false, false, false, \"\", \"\");\n\n    function validateDoor(bool isPassed) public {\n        newTest.door = isPassed;\n    }\n\n    function validateCable(bool isPassed) public {\n        newTest.cable = isPassed;\n    }\n\n    function validateBrake(bool isPassed) public {\n        newTest.brake = isPassed;\n    }\n\n    function addPermit(string memory permitNumber) public {\n        newTest.perm = permitNumber;\n    }\n\n    function addCertificate(string memory certificateNumber) public {\n        newTest.certificate = certificateNumber;\n    }\n\n    function getTest()\n        public\n        view\n        returns (\n            bool,\n            bool,\n            bool,\n            string memory,\n            string memory\n        )\n    {\n        return (\n            newTest.door,\n            newTest.cable,\n            newTest.brake,\n            newTest.perm,\n            newTest.certificate\n        );\n    }\n}\n",
  "sourcePath": "/Users/gabrielrioux/Rocket_Elevators_Blockchain/contracts/QualityControl.sol",
  "compiler": {
    "name": "solc",
    "version": "0.5.16+commit.9c3226ce.Emscripten.clang"
  },
  "schemaVersion": "3.3.4",
  "updatedAt": "2021-04-16T16:35:07.233Z",
  "networkType": "ethereum",
  "devdoc": {
    "methods": {}
  },
  "userdoc": {
    "methods": {}
  }
}