{
  "contractName": "QualityControl",
  "abi": [
    {
      "constant": true,
      "inputs": [],
      "name": "customer",
      "outputs": [
        {
          "internalType": "address",
          "name": "",
          "type": "address"
        }
      ],
      "payable": false,
      "stateMutability": "view",
      "type": "function"
    },
    {
      "constant": false,
      "inputs": [
        {
          "internalType": "bool",
          "name": "isPassed",
          "type": "bool"
        }
      ],
      "name": "validateDoor",
      "outputs": [],
      "payable": false,
      "stateMutability": "nonpayable",
      "type": "function"
    },
    {
      "constant": false,
      "inputs": [
        {
          "internalType": "bool",
          "name": "isPassed",
          "type": "bool"
        }
      ],
      "name": "validateCable",
      "outputs": [],
      "payable": false,
      "stateMutability": "nonpayable",
      "type": "function"
    },
    {
      "constant": false,
      "inputs": [
        {
          "internalType": "bool",
          "name": "isPassed",
          "type": "bool"
        }
      ],
      "name": "validateBrake",
      "outputs": [],
      "payable": false,
      "stateMutability": "nonpayable",
      "type": "function"
    },
    {
      "constant": false,
      "inputs": [
        {
          "internalType": "string",
          "name": "permitNumber",
          "type": "string"
        }
      ],
      "name": "addPermit",
      "outputs": [],
      "payable": false,
      "stateMutability": "nonpayable",
      "type": "function"
    },
    {
      "constant": false,
      "inputs": [
        {
          "internalType": "string",
          "name": "certificateNumber",
          "type": "string"
        }
      ],
      "name": "addCertificate",
      "outputs": [],
      "payable": false,
      "stateMutability": "nonpayable",
      "type": "function"
    },
    {
      "constant": false,
      "inputs": [],
      "name": "getTest",
      "outputs": [
        {
          "internalType": "bool",
          "name": "",
          "type": "bool"
        }
      ],
      "payable": false,
      "stateMutability": "nonpayable",
      "type": "function"
    }
  ],
  "bytecode": "0x60806040526040518060a001604052806001151581526020016001151581526020016001151581526020016040518060400160405280601b81526020017f6363636363632d35353535352d353535353535352d636334633463000000000081525081526020016040518060400160405280601b81526020017f6363636363632d35353535352d353535353535352d6363346334630000000000815250815250600160008201518160000160006101000a81548160ff02191690831515021790555060208201518160000160016101000a81548160ff02191690831515021790555060408201518160000160026101000a81548160ff021916908315150217905550606082015181600101908051906020019061011c92919061014e565b50608082015181600201908051906020019061013992919061014e565b50505034801561014857600080fd5b506101f3565b828054600181600116156101000203166002900490600052602060002090601f016020900481019282601f1061018f57805160ff19168380011785556101bd565b828001600101855582156101bd579182015b828111156101bc5782518255916020019190600101906101a1565b5b5090506101ca91906101ce565b5090565b6101f091905b808211156101ec5760008160009055506001016101d4565b5090565b90565b610589806102026000396000f3fe608060405234801561001057600080fd5b506004361061007d5760003560e01c80636b52b4ca1161005b5780636b52b4ca146101b7578063a8cd0a80146101e7578063addc983914610209578063b23a1097146102c45761007d565b80630a99e4f8146100825780632804b2c01461013d5780634e3c644914610187575b600080fd5b61013b6004803603602081101561009857600080fd5b81019080803590602001906401000000008111156100b557600080fd5b8201836020820111156100c757600080fd5b803590602001918460018302840111640100000000831117156100e957600080fd5b91908080601f016020809104026020016040519081016040528093929190818152602001838380828437600081840152601f19601f8201169050808301925050505050505091929192905050506102f4565b005b610145610310565b604051808273ffffffffffffffffffffffffffffffffffffffff1673ffffffffffffffffffffffffffffffffffffffff16815260200191505060405180910390f35b6101b56004803603602081101561019d57600080fd5b81019080803515159060200190929190505050610335565b005b6101e5600480360360208110156101cd57600080fd5b81019080803515159060200190929190505050610355565b005b6101ef610375565b604051808215151515815260200191505060405180910390f35b6102c26004803603602081101561021f57600080fd5b810190808035906020019064010000000081111561023c57600080fd5b82018360208201111561024e57600080fd5b8035906020019184600183028401116401000000008311171561027057600080fd5b91908080601f016020809104026020016040519081016040528093929190818152602001838380828437600081840152601f19601f820116905080830192505050505050509192919290505050610472565b005b6102f2600480360360208110156102da57600080fd5b8101908080351515906020019092919050505061048f565b005b8060018001908051906020019061030c9291906104af565b5050565b6000809054906101000a900473ffffffffffffffffffffffffffffffffffffffff1681565b80600160000160016101000a81548160ff02191690831515021790555050565b80600160000160026101000a81548160ff02191690831515021790555050565b600060018060000160026101000a81548160ff02191690831515021790555060018060000160016101000a81548160ff02191690831515021790555060018060000160006101000a81548160ff0219169083151502179055506040518060400160405280600581526020017f67686a6b6c0000000000000000000000000000000000000000000000000000008152506001600201908051906020019061041c9291906104af565b506040518060400160405280600581526020017f67686a6b6c00000000000000000000000000000000000000000000000000000081525060018001908051906020019061046a9291906104af565b506001905090565b806001600201908051906020019061048b9291906104af565b5050565b80600160000160006101000a81548160ff02191690831515021790555050565b828054600181600116156101000203166002900490600052602060002090601f016020900481019282601f106104f057805160ff191683800117855561051e565b8280016001018555821561051e579182015b8281111561051d578251825591602001919060010190610502565b5b50905061052b919061052f565b5090565b61055191905b8082111561054d576000816000905550600101610535565b5090565b9056fea265627a7a72315820d62a9d9c5f8e51bdb312ed381756822ae097abe39364c73ecf6d0ab601baf11f64736f6c63430005100032",
  "source": "pragma solidity ^0.5.0;\n//pragma experimental ABIEncoderV2;\n\ncontract QualityControl {\n    address public customer;\n \n    struct Test {\n        bool door;\n        bool cable;\n        bool brake;\n        string battery;\n        string column;\n        \n    }\n    \n    \n   Test newTest = Test(true, true, true, \"cccccc-55555-5555555-cc4c4c\", \"cccccc-55555-5555555-cc4c4c\");\n    function validateDoor(bool isPassed) public {\n        newTest.door = isPassed;\n    }\n    \n    function validateCable(bool isPassed) public {\n        newTest.cable = isPassed;\n    }\n    \n    function validateBrake(bool isPassed) public {\n        newTest.brake = isPassed;\n    }\n    \n    function addPermit(string memory permitNumber) public {\n        newTest.column = permitNumber;\n    }\n    \n    \n    function addCertificate(string memory certificateNumber) public {\n        newTest.battery = certificateNumber;\n    }\n    \n    function getTest() public returns (bool) {\n            //Test memory p;\n            newTest.brake = true;\n            newTest.cable = true;\n            newTest.door = true;\n            newTest.column = \"ghjkl\";\n            newTest.battery = \"ghjkl\";\n          //print(\"a was submit is:\", newTest.door);\n\n//          validateBrake(true);, bool, bool, string memory, string memory\n //         validateDoor(true);(newTest.brake, newTest.cable, newTest.door, newTest.column, newTest.battery)\n  //        validateCable(true);\n   //       addPermit('cccccc-55555-5555555-cc4c4c4');\n    //      addCertificate('cccccc-55555-5555555-cc4c4c4');\n        \n        return true;           \n    }\n}\n/// je charge mon phone##############################################",
  "sourcePath": "/home/emmatshi/Rocket_Elevators_Blockchain/contracts/QualityControl.sol",
  "compiler": {
    "name": "solc",
    "version": "0.5.16+commit.9c3226ce.Emscripten.clang"
  },
  "schemaVersion": "3.3.4",
  "updatedAt": "2021-04-16T06:21:04.196Z",
  "devdoc": {
    "methods": {}
  },
  "userdoc": {
    "methods": {}
  }
}