{
  "contractName": "QualityControl",
  "abi": [
    {
      "constant": false,
      "inputs": [
        {
          "internalType": "bool",
          "name": "cabletest",
          "type": "bool"
        },
        {
          "internalType": "bool",
          "name": "braketest",
          "type": "bool"
        },
        {
          "internalType": "bool",
          "name": "doortest",
          "type": "bool"
        },
        {
          "internalType": "bool",
          "name": "perm",
          "type": "bool"
        },
        {
          "internalType": "bool",
          "name": "certificate",
          "type": "bool"
        }
      ],
      "name": "validateUnit",
      "outputs": [
        {
          "internalType": "bool",
          "name": "",
          "type": "bool"
        }
      ],
      "payable": false,
      "stateMutability": "nonpayable",
      "type": "function"
    }
  ],
  "bytecode": "0x608060405234801561001057600080fd5b506101e2806100206000396000f3fe608060405234801561001057600080fd5b506004361061002b5760003560e01c8063434f6dee14610030575b600080fd5b61004a600480360361004591908101906100db565b610060565b6040516100579190610161565b60405180910390f35b60006001151584151514801561007a575060011515851515145b801561008a575060011515861515145b801561009a575060011515831515145b80156100aa575060011515821515145b156100b857600190506100bd565b600090505b95945050505050565b6000813590506100d581610188565b92915050565b600080600080600060a086880312156100f357600080fd5b6000610101888289016100c6565b9550506020610112888289016100c6565b9450506040610123888289016100c6565b9350506060610134888289016100c6565b9250506080610145888289016100c6565b9150509295509295909350565b61015b8161017c565b82525050565b60006020820190506101766000830184610152565b92915050565b60008115159050919050565b6101918161017c565b811461019c57600080fd5b5056fea365627a7a72315820a4537c28f12f57c59e62e4cb67f721961b8231073e4a464b1fe35bd82be7968d6c6578706572696d656e74616cf564736f6c63430005100040",
  "source": "pragma solidity ^0.5.0;\npragma experimental ABIEncoderV2;\n\ncontract QualityControl {\n    struct test {\n        bool Door;\n        bool Cable;\n        bool Brake;\n        bool perm;\n        bool Certificate;\n    }\n\n    function validateUnit(\n        bool cabletest,\n        bool braketest,\n        bool doortest,\n        bool perm,\n        bool certificate\n    ) public returns (bool) {\n        if (\n            doortest == true &&\n            braketest == true &&\n            cabletest == true &&\n            perm == true &&\n            certificate == true\n        ) {\n            return true;\n        } else {\n            return false;\n        }\n    }\n}\n",
  "sourcePath": "/home/emtl688/leader/Rocket_Elevators_Blockchain/contracts/QualityControl.sol",
  "compiler": {
    "name": "solc",
    "version": "0.5.16+commit.9c3226ce.Emscripten.clang"
  },
  "schemaVersion": "3.3.4",
  "updatedAt": "2021-04-15T01:32:33.609Z",
  "networkType": "ethereum",
  "devdoc": {
    "methods": {}
  },
  "userdoc": {
    "methods": {}
  }
}