{
  "contractName": "SolutionManufacturing",
  "abi": [
    {
      "constant": true,
      "inputs": [
        {
          "internalType": "uint256",
          "name": "",
          "type": "uint256"
        }
      ],
      "name": "callSigns",
      "outputs": [
        {
          "internalType": "uint256",
          "name": "id",
          "type": "uint256"
        },
        {
          "internalType": "address",
          "name": "manufacturerAddress",
          "type": "address"
        },
        {
          "internalType": "uint256",
          "name": "nbOfAluminumBars",
          "type": "uint256"
        },
        {
          "internalType": "uint256",
          "name": "nbOfStainlessSheets",
          "type": "uint256"
        },
        {
          "internalType": "uint256",
          "name": "nbOfOtherHardware",
          "type": "uint256"
        },
        {
          "internalType": "uint256",
          "name": "nbOfBumpers",
          "type": "uint256"
        },
        {
          "internalType": "uint256",
          "name": "nbOfLightBulbs",
          "type": "uint256"
        },
        {
          "internalType": "uint256",
          "name": "nbOfLeds",
          "type": "uint256"
        }
      ],
      "payable": false,
      "stateMutability": "view",
      "type": "function"
    },
    {
      "constant": true,
      "inputs": [
        {
          "internalType": "uint256",
          "name": "",
          "type": "uint256"
        }
      ],
      "name": "controlPanels",
      "outputs": [
        {
          "internalType": "uint256",
          "name": "id",
          "type": "uint256"
        },
        {
          "internalType": "address",
          "name": "manufacturerAddress",
          "type": "address"
        },
        {
          "internalType": "uint256",
          "name": "nbOfAluminumBars",
          "type": "uint256"
        },
        {
          "internalType": "uint256",
          "name": "nbOfStainlessSheets",
          "type": "uint256"
        },
        {
          "internalType": "uint256",
          "name": "nbOfOtherHardware",
          "type": "uint256"
        },
        {
          "internalType": "uint256",
          "name": "nbOfBumpers",
          "type": "uint256"
        },
        {
          "internalType": "uint256",
          "name": "nbOfLightBulbs",
          "type": "uint256"
        },
        {
          "internalType": "uint256",
          "name": "nbOfLeds",
          "type": "uint256"
        }
      ],
      "payable": false,
      "stateMutability": "view",
      "type": "function"
    },
    {
      "constant": true,
      "inputs": [
        {
          "internalType": "uint256",
          "name": "",
          "type": "uint256"
        }
      ],
      "name": "controllers",
      "outputs": [
        {
          "internalType": "uint256",
          "name": "id",
          "type": "uint256"
        },
        {
          "internalType": "address",
          "name": "manufacturerAddress",
          "type": "address"
        },
        {
          "internalType": "uint256",
          "name": "nbOfAluminumBars",
          "type": "uint256"
        },
        {
          "internalType": "uint256",
          "name": "nbOfStainlessSheets",
          "type": "uint256"
        },
        {
          "internalType": "uint256",
          "name": "nbOfOtherHardware",
          "type": "uint256"
        },
        {
          "internalType": "uint256",
          "name": "nbOfBumpers",
          "type": "uint256"
        },
        {
          "internalType": "uint256",
          "name": "nbOfLightBulbs",
          "type": "uint256"
        },
        {
          "internalType": "uint256",
          "name": "nbOfLeds",
          "type": "uint256"
        }
      ],
      "payable": false,
      "stateMutability": "view",
      "type": "function"
    },
    {
      "constant": true,
      "inputs": [
        {
          "internalType": "uint256",
          "name": "",
          "type": "uint256"
        }
      ],
      "name": "doors",
      "outputs": [
        {
          "internalType": "uint256",
          "name": "id",
          "type": "uint256"
        },
        {
          "internalType": "address",
          "name": "manufacturerAddress",
          "type": "address"
        },
        {
          "internalType": "uint256",
          "name": "nbOfAluminumBars",
          "type": "uint256"
        },
        {
          "internalType": "uint256",
          "name": "nbOfStainlessSheets",
          "type": "uint256"
        },
        {
          "internalType": "uint256",
          "name": "nbOfOtherHardware",
          "type": "uint256"
        },
        {
          "internalType": "uint256",
          "name": "nbOfBumpers",
          "type": "uint256"
        },
        {
          "internalType": "uint256",
          "name": "nbOfLightBulbs",
          "type": "uint256"
        },
        {
          "internalType": "uint256",
          "name": "nbOfLeds",
          "type": "uint256"
        }
      ],
      "payable": false,
      "stateMutability": "view",
      "type": "function"
    },
    {
      "constant": false,
      "inputs": [
        {
          "internalType": "uint256",
          "name": "nbOfAluminumBars",
          "type": "uint256"
        },
        {
          "internalType": "uint256",
          "name": "nbOfStainlessSheets",
          "type": "uint256"
        },
        {
          "internalType": "uint256",
          "name": "nbOfOtherHardware",
          "type": "uint256"
        },
        {
          "internalType": "uint256",
          "name": "nbOfBumpers",
          "type": "uint256"
        },
        {
          "internalType": "uint256",
          "name": "nbOfLightBulbs",
          "type": "uint256"
        },
        {
          "internalType": "uint256",
          "name": "nbOfLeds",
          "type": "uint256"
        }
      ],
      "name": "addDoor",
      "outputs": [],
      "payable": false,
      "stateMutability": "nonpayable",
      "type": "function"
    },
    {
      "constant": false,
      "inputs": [
        {
          "internalType": "uint256",
          "name": "nbOfAluminumBars",
          "type": "uint256"
        },
        {
          "internalType": "uint256",
          "name": "nbOfStainlessSheets",
          "type": "uint256"
        },
        {
          "internalType": "uint256",
          "name": "nbOfOtherHardware",
          "type": "uint256"
        },
        {
          "internalType": "uint256",
          "name": "nbOfBumpers",
          "type": "uint256"
        },
        {
          "internalType": "uint256",
          "name": "nbOfLightBulbs",
          "type": "uint256"
        },
        {
          "internalType": "uint256",
          "name": "nbOfLeds",
          "type": "uint256"
        }
      ],
      "name": "addController",
      "outputs": [],
      "payable": false,
      "stateMutability": "nonpayable",
      "type": "function"
    },
    {
      "constant": false,
      "inputs": [
        {
          "internalType": "uint256",
          "name": "nbOfAluminumBars",
          "type": "uint256"
        },
        {
          "internalType": "uint256",
          "name": "nbOfStainlessSheets",
          "type": "uint256"
        },
        {
          "internalType": "uint256",
          "name": "nbOfOtherHardware",
          "type": "uint256"
        },
        {
          "internalType": "uint256",
          "name": "nbOfBumpers",
          "type": "uint256"
        },
        {
          "internalType": "uint256",
          "name": "nbOfLightBulbs",
          "type": "uint256"
        },
        {
          "internalType": "uint256",
          "name": "nbOfLeds",
          "type": "uint256"
        }
      ],
      "name": "addControlPanel",
      "outputs": [],
      "payable": false,
      "stateMutability": "nonpayable",
      "type": "function"
    },
    {
      "constant": false,
      "inputs": [
        {
          "internalType": "uint256",
          "name": "nbOfAluminumBars",
          "type": "uint256"
        },
        {
          "internalType": "uint256",
          "name": "nbOfStainlessSheets",
          "type": "uint256"
        },
        {
          "internalType": "uint256",
          "name": "nbOfOtherHardware",
          "type": "uint256"
        },
        {
          "internalType": "uint256",
          "name": "nbOfBumpers",
          "type": "uint256"
        },
        {
          "internalType": "uint256",
          "name": "nbOfLightBulbs",
          "type": "uint256"
        },
        {
          "internalType": "uint256",
          "name": "nbOfLeds",
          "type": "uint256"
        }
      ],
      "name": "addCallSign",
      "outputs": [],
      "payable": false,
      "stateMutability": "nonpayable",
      "type": "function"
    },
    {
      "constant": true,
      "inputs": [
        {
          "internalType": "uint256",
          "name": "id",
          "type": "uint256"
        }
      ],
      "name": "getDoor",
      "outputs": [
        {
          "internalType": "uint256",
          "name": "",
          "type": "uint256"
        },
        {
          "internalType": "uint256",
          "name": "",
          "type": "uint256"
        },
        {
          "internalType": "uint256",
          "name": "",
          "type": "uint256"
        },
        {
          "internalType": "uint256",
          "name": "",
          "type": "uint256"
        },
        {
          "internalType": "uint256",
          "name": "",
          "type": "uint256"
        },
        {
          "internalType": "uint256",
          "name": "",
          "type": "uint256"
        }
      ],
      "payable": false,
      "stateMutability": "view",
      "type": "function"
    },
    {
      "constant": true,
      "inputs": [
        {
          "internalType": "uint256",
          "name": "id",
          "type": "uint256"
        }
      ],
      "name": "getController",
      "outputs": [
        {
          "internalType": "uint256",
          "name": "",
          "type": "uint256"
        },
        {
          "internalType": "uint256",
          "name": "",
          "type": "uint256"
        },
        {
          "internalType": "uint256",
          "name": "",
          "type": "uint256"
        },
        {
          "internalType": "uint256",
          "name": "",
          "type": "uint256"
        },
        {
          "internalType": "uint256",
          "name": "",
          "type": "uint256"
        },
        {
          "internalType": "uint256",
          "name": "",
          "type": "uint256"
        }
      ],
      "payable": false,
      "stateMutability": "view",
      "type": "function"
    },
    {
      "constant": true,
      "inputs": [
        {
          "internalType": "uint256",
          "name": "id",
          "type": "uint256"
        }
      ],
      "name": "getControlPanel",
      "outputs": [
        {
          "internalType": "uint256",
          "name": "",
          "type": "uint256"
        },
        {
          "internalType": "uint256",
          "name": "",
          "type": "uint256"
        },
        {
          "internalType": "uint256",
          "name": "",
          "type": "uint256"
        },
        {
          "internalType": "uint256",
          "name": "",
          "type": "uint256"
        },
        {
          "internalType": "uint256",
          "name": "",
          "type": "uint256"
        },
        {
          "internalType": "uint256",
          "name": "",
          "type": "uint256"
        }
      ],
      "payable": false,
      "stateMutability": "view",
      "type": "function"
    },
    {
      "constant": true,
      "inputs": [
        {
          "internalType": "uint256",
          "name": "id",
          "type": "uint256"
        }
      ],
      "name": "getCallSign",
      "outputs": [
        {
          "internalType": "uint256",
          "name": "",
          "type": "uint256"
        },
        {
          "internalType": "uint256",
          "name": "",
          "type": "uint256"
        },
        {
          "internalType": "uint256",
          "name": "",
          "type": "uint256"
        },
        {
          "internalType": "uint256",
          "name": "",
          "type": "uint256"
        },
        {
          "internalType": "uint256",
          "name": "",
          "type": "uint256"
        },
        {
          "internalType": "uint256",
          "name": "",
          "type": "uint256"
        }
      ],
      "payable": false,
      "stateMutability": "view",
      "type": "function"
    }
  ],
  "bytecode": "0x6080604052600160045560016005556001600655600160075534801561002457600080fd5b506116a6806100346000396000f3fe608060405234801561001057600080fd5b50600436106100b45760003560e01c80638267ed2c116100715780638267ed2c14610347578063a24883ee146103e6578063af2f36351461044b578063c3607f34146104ea578063e4dea9721461054a578063e94b0dd2146105aa576100b4565b80630a36acc9146100b95780631d3bff61146101195780632b22a6451461017e57806337e6c6c71461021d57806358edaa9c146102825780635ef4a93b146102e7575b600080fd5b610117600480360360c08110156100cf57600080fd5b81019080803590602001909291908035906020019092919080359060200190929190803590602001909291908035906020019092919080359060200190929190505050610649565b005b6101456004803603602081101561012f57600080fd5b810190808035906020019092919050505061080c565b60405180878152602001868152602001858152602001848152602001838152602001828152602001965050505050505060405180910390f35b6101aa6004803603602081101561019457600080fd5b8101908080359060200190929190505050610932565b604051808981526020018873ffffffffffffffffffffffffffffffffffffffff1673ffffffffffffffffffffffffffffffffffffffff1681526020018781526020018681526020018581526020018481526020018381526020018281526020019850505050505050505060405180910390f35b6102496004803603602081101561023357600080fd5b81019080803590602001909291905050506109a7565b60405180878152602001868152602001858152602001848152602001838152602001828152602001965050505050505060405180910390f35b6102ae6004803603602081101561029857600080fd5b8101908080359060200190929190505050610acd565b60405180878152602001868152602001858152602001848152602001838152602001828152602001965050505050505060405180910390f35b610345600480360360c08110156102fd57600080fd5b81019080803590602001909291908035906020019092919080359060200190929190803590602001909291908035906020019092919080359060200190929190505050610bf3565b005b6103736004803603602081101561035d57600080fd5b8101908080359060200190929190505050610db6565b604051808981526020018873ffffffffffffffffffffffffffffffffffffffff1673ffffffffffffffffffffffffffffffffffffffff1681526020018781526020018681526020018581526020018481526020018381526020018281526020019850505050505050505060405180910390f35b610412600480360360208110156103fc57600080fd5b8101908080359060200190929190505050610e2b565b60405180878152602001868152602001858152602001848152602001838152602001828152602001965050505050505060405180910390f35b6104776004803603602081101561046157600080fd5b8101908080359060200190929190505050610f51565b604051808981526020018873ffffffffffffffffffffffffffffffffffffffff1673ffffffffffffffffffffffffffffffffffffffff1681526020018781526020018681526020018581526020018481526020018381526020018281526020019850505050505050505060405180910390f35b610548600480360360c081101561050057600080fd5b81019080803590602001909291908035906020019092919080359060200190929190803590602001909291908035906020019092919080359060200190929190505050610fc6565b005b6105a8600480360360c081101561056057600080fd5b81019080803590602001909291908035906020019092919080359060200190929190803590602001909291908035906020019092919080359060200190929190505050611189565b005b6105d6600480360360208110156105c057600080fd5b810190808035906020019092919050505061133c565b604051808981526020018873ffffffffffffffffffffffffffffffffffffffff1673ffffffffffffffffffffffffffffffffffffffff1681526020018781526020018681526020018581526020018481526020018381526020018281526020019850505050505050505060405180910390f35b6002805480919060010161065d91906113b1565b5060065460026001600280549050038154811061067657fe5b906000526020600020906008020160000181905550336002600160028054905003815481106106a157fe5b906000526020600020906008020160010160006101000a81548173ffffffffffffffffffffffffffffffffffffffff021916908373ffffffffffffffffffffffffffffffffffffffff1602179055508560026001600280549050038154811061070657fe5b9060005260206000209060080201600201819055508460026001600280549050038154811061073157fe5b9060005260206000209060080201600301819055508360026001600280549050038154811061075c57fe5b9060005260206000209060080201600401819055508260026001600280549050038154811061078757fe5b906000526020600020906008020160050181905550816002600160028054905003815481106107b257fe5b906000526020600020906008020160060181905550806002600160028054905003815481106107dd57fe5b906000526020600020906008020160070181905550600660008154809291906001019190505550505050505050565b60008060008060008060008090505b60028054905081101561092757876002828154811061083657fe5b906000526020600020906008020160000154141561091a576002818154811061085b57fe5b9060005260206000209060080201600201546002828154811061087a57fe5b9060005260206000209060080201600301546002838154811061089957fe5b906000526020600020906008020160040154600284815481106108b857fe5b906000526020600020906008020160050154600285815481106108d757fe5b906000526020600020906008020160060154600286815481106108f657fe5b90600052602060002090600802016007015496509650965096509650965050610929565b808060010191505061081b565b505b91939550919395565b6002818154811061093f57fe5b90600052602060002090600802016000915090508060000154908060010160009054906101000a900473ffffffffffffffffffffffffffffffffffffffff16908060020154908060030154908060040154908060050154908060060154908060070154905088565b60008060008060008060008090505b600380549050811015610ac25787600382815481106109d157fe5b9060005260206000209060080201600001541415610ab557600381815481106109f657fe5b90600052602060002090600802016002015460038281548110610a1557fe5b90600052602060002090600802016003015460038381548110610a3457fe5b90600052602060002090600802016004015460038481548110610a5357fe5b90600052602060002090600802016005015460038581548110610a7257fe5b90600052602060002090600802016006015460038681548110610a9157fe5b90600052602060002090600802016007015496509650965096509650965050610ac4565b80806001019150506109b6565b505b91939550919395565b60008060008060008060008090505b600180549050811015610be8578760018281548110610af757fe5b9060005260206000209060080201600001541415610bdb5760018181548110610b1c57fe5b90600052602060002090600802016002015460018281548110610b3b57fe5b90600052602060002090600802016003015460018381548110610b5a57fe5b90600052602060002090600802016004015460018481548110610b7957fe5b90600052602060002090600802016005015460018581548110610b9857fe5b90600052602060002090600802016006015460018681548110610bb757fe5b90600052602060002090600802016007015496509650965096509650965050610bea565b8080600101915050610adc565b505b91939550919395565b60008054809190600101610c0791906113e3565b50600454600060016000805490500381548110610c2057fe5b90600052602060002090600802016000018190555033600060016000805490500381548110610c4b57fe5b906000526020600020906008020160010160006101000a81548173ffffffffffffffffffffffffffffffffffffffff021916908373ffffffffffffffffffffffffffffffffffffffff16021790555085600060016000805490500381548110610cb057fe5b90600052602060002090600802016002018190555084600060016000805490500381548110610cdb57fe5b90600052602060002090600802016003018190555083600060016000805490500381548110610d0657fe5b90600052602060002090600802016004018190555082600060016000805490500381548110610d3157fe5b90600052602060002090600802016005018190555081600060016000805490500381548110610d5c57fe5b90600052602060002090600802016006018190555080600060016000805490500381548110610d8757fe5b906000526020600020906008020160070181905550600460008154809291906001019190505550505050505050565b60038181548110610dc357fe5b90600052602060002090600802016000915090508060000154908060010160009054906101000a900473ffffffffffffffffffffffffffffffffffffffff16908060020154908060030154908060040154908060050154908060060154908060070154905088565b60008060008060008060008090505b600080549050811015610f46578760008281548110610e5557fe5b9060005260206000209060080201600001541415610f395760008181548110610e7a57fe5b90600052602060002090600802016002015460008281548110610e9957fe5b90600052602060002090600802016003015460008381548110610eb857fe5b90600052602060002090600802016004015460008481548110610ed757fe5b90600052602060002090600802016005015460008581548110610ef657fe5b90600052602060002090600802016006015460008681548110610f1557fe5b90600052602060002090600802016007015496509650965096509650965050610f48565b8080600101915050610e3a565b505b91939550919395565b60008181548110610f5e57fe5b90600052602060002090600802016000915090508060000154908060010160009054906101000a900473ffffffffffffffffffffffffffffffffffffffff16908060020154908060030154908060040154908060050154908060060154908060070154905088565b60038054809190600101610fda9190611415565b50600754600360016003805490500381548110610ff357fe5b9060005260206000209060080201600001819055503360036001600380549050038154811061101e57fe5b906000526020600020906008020160010160006101000a81548173ffffffffffffffffffffffffffffffffffffffff021916908373ffffffffffffffffffffffffffffffffffffffff1602179055508560036001600380549050038154811061108357fe5b906000526020600020906008020160020181905550846003600160038054905003815481106110ae57fe5b906000526020600020906008020160030181905550836003600160038054905003815481106110d957fe5b9060005260206000209060080201600401819055508260036001600380549050038154811061110457fe5b9060005260206000209060080201600501819055508160036001600380549050038154811061112f57fe5b9060005260206000209060080201600601819055508060036001600380549050038154811061115a57fe5b906000526020600020906008020160070181905550600760008154809291906001019190505550505050505050565b6001805480919060010161119d9190611447565b50600554600180808054905003815481106111b457fe5b90600052602060002090600802016000018190555033600180808054905003815481106111dd57fe5b906000526020600020906008020160010160006101000a81548173ffffffffffffffffffffffffffffffffffffffff021916908373ffffffffffffffffffffffffffffffffffffffff160217905550856001808080549050038154811061124057fe5b906000526020600020906008020160020181905550846001808080549050038154811061126957fe5b906000526020600020906008020160030181905550836001808080549050038154811061129257fe5b90600052602060002090600802016004018190555082600180808054905003815481106112bb57fe5b90600052602060002090600802016005018190555081600180808054905003815481106112e457fe5b906000526020600020906008020160060181905550806001808080549050038154811061130d57fe5b906000526020600020906008020160070181905550600560008154809291906001019190505550505050505050565b6001818154811061134957fe5b90600052602060002090600802016000915090508060000154908060010160009054906101000a900473ffffffffffffffffffffffffffffffffffffffff16908060020154908060030154908060040154908060050154908060060154908060070154905088565b8154818355818111156113de576008028160080283600052602060002091820191016113dd9190611479565b5b505050565b8154818355818111156114105760080281600802836000526020600020918201910161140f91906114f7565b5b505050565b815481835581811115611442576008028160080283600052602060002091820191016114419190611575565b5b505050565b8154818355818111156114745760080281600802836000526020600020918201910161147391906115f3565b5b505050565b6114f491905b808211156114f0576000808201600090556001820160006101000a81549073ffffffffffffffffffffffffffffffffffffffff02191690556002820160009055600382016000905560048201600090556005820160009055600682016000905560078201600090555060080161147f565b5090565b90565b61157291905b8082111561156e576000808201600090556001820160006101000a81549073ffffffffffffffffffffffffffffffffffffffff0219169055600282016000905560038201600090556004820160009055600582016000905560068201600090556007820160009055506008016114fd565b5090565b90565b6115f091905b808211156115ec576000808201600090556001820160006101000a81549073ffffffffffffffffffffffffffffffffffffffff02191690556002820160009055600382016000905560048201600090556005820160009055600682016000905560078201600090555060080161157b565b5090565b90565b61166e91905b8082111561166a576000808201600090556001820160006101000a81549073ffffffffffffffffffffffffffffffffffffffff0219169055600282016000905560038201600090556004820160009055600582016000905560068201600090556007820160009055506008016115f9565b5090565b9056fea265627a7a72315820e36dce6cfecb7d12a4bbe84fbada1498c9f0c4c896b119d11d419662a87487a664736f6c63430005100032",
  "source": "pragma solidity ^0.5.0;\n\ncontract SolutionManufacturing {\n    struct Door {\n        uint256 id;\n        address manufacturerAddress;\n        uint256 nbOfAluminumBars;\n        uint256 nbOfStainlessSheets;\n        uint256 nbOfOtherHardware;\n        uint256 nbOfBumpers;\n        uint256 nbOfLightBulbs;\n        uint256 nbOfLeds;\n    }\n\n    struct Controller {\n        uint256 id;\n        address manufacturerAddress;\n        uint256 nbOfAluminumBars;\n        uint256 nbOfStainlessSheets;\n        uint256 nbOfOtherHardware;\n        uint256 nbOfBumpers;\n        uint256 nbOfLightBulbs;\n        uint256 nbOfLeds;\n    }\n\n    struct ControlPanel {\n        uint256 id;\n        address manufacturerAddress;\n        uint256 nbOfAluminumBars;\n        uint256 nbOfStainlessSheets;\n        uint256 nbOfOtherHardware;\n        uint256 nbOfBumpers;\n        uint256 nbOfLightBulbs;\n        uint256 nbOfLeds;\n    }\n\n    struct CallSign {\n        uint256 id;\n        address manufacturerAddress;\n        uint256 nbOfAluminumBars;\n        uint256 nbOfStainlessSheets;\n        uint256 nbOfOtherHardware;\n        uint256 nbOfBumpers;\n        uint256 nbOfLightBulbs;\n        uint256 nbOfLeds;\n    }\n    Door[] public doors;\n    Controller[] public controllers;\n    ControlPanel[] public controlPanels;\n    CallSign[] public callSigns;\n\n    uint256 nextDoorId = 1;\n    uint256 nextControllerId = 1;\n    uint256 nextControlPanelId = 1;\n    uint256 nextCallSignId = 1;\n\n    function addDoor(\n        uint256 nbOfAluminumBars,\n        uint256 nbOfStainlessSheets,\n        uint256 nbOfOtherHardware,\n        uint256 nbOfBumpers,\n        uint256 nbOfLightBulbs,\n        uint256 nbOfLeds\n    ) public {\n        doors.length++;\n        doors[doors.length - 1].id = nextDoorId;\n        doors[doors.length - 1].manufacturerAddress = msg.sender;\n        doors[doors.length - 1].nbOfAluminumBars = nbOfAluminumBars;\n        doors[doors.length - 1].nbOfStainlessSheets = nbOfStainlessSheets;\n        doors[doors.length - 1].nbOfOtherHardware = nbOfOtherHardware;\n        doors[doors.length - 1].nbOfBumpers = nbOfBumpers;\n        doors[doors.length - 1].nbOfLightBulbs = nbOfLightBulbs;\n        doors[doors.length - 1].nbOfLeds = nbOfLeds;\n        nextDoorId++;\n    }\n\n    function addController(\n        uint256 nbOfAluminumBars,\n        uint256 nbOfStainlessSheets,\n        uint256 nbOfOtherHardware,\n        uint256 nbOfBumpers,\n        uint256 nbOfLightBulbs,\n        uint256 nbOfLeds\n    ) public {\n        controllers.length++;\n        controllers[controllers.length - 1].id = nextControllerId;\n        controllers[controllers.length - 1].manufacturerAddress = msg.sender;\n        controllers[controllers.length - 1].nbOfAluminumBars = nbOfAluminumBars;\n        controllers[controllers.length - 1]\n            .nbOfStainlessSheets = nbOfStainlessSheets;\n        controllers[controllers.length - 1]\n            .nbOfOtherHardware = nbOfOtherHardware;\n        controllers[controllers.length - 1].nbOfBumpers = nbOfBumpers;\n        controllers[controllers.length - 1].nbOfLightBulbs = nbOfLightBulbs;\n        controllers[controllers.length - 1].nbOfLeds = nbOfLeds;\n        nextControllerId++;\n    }\n\n    function addControlPanel(\n        uint256 nbOfAluminumBars,\n        uint256 nbOfStainlessSheets,\n        uint256 nbOfOtherHardware,\n        uint256 nbOfBumpers,\n        uint256 nbOfLightBulbs,\n        uint256 nbOfLeds\n    ) public {\n        controlPanels.length++;\n        controlPanels[controlPanels.length - 1].id = nextControlPanelId;\n        controlPanels[controlPanels.length - 1].manufacturerAddress = msg\n            .sender;\n        controlPanels[controlPanels.length - 1]\n            .nbOfAluminumBars = nbOfAluminumBars;\n        controlPanels[controlPanels.length - 1]\n            .nbOfStainlessSheets = nbOfStainlessSheets;\n        controlPanels[controlPanels.length - 1]\n            .nbOfOtherHardware = nbOfOtherHardware;\n        controlPanels[controlPanels.length - 1].nbOfBumpers = nbOfBumpers;\n        controlPanels[controlPanels.length - 1].nbOfLightBulbs = nbOfLightBulbs;\n        controlPanels[controlPanels.length - 1].nbOfLeds = nbOfLeds;\n        nextControlPanelId++;\n    }\n\n    function addCallSign(\n        uint256 nbOfAluminumBars,\n        uint256 nbOfStainlessSheets,\n        uint256 nbOfOtherHardware,\n        uint256 nbOfBumpers,\n        uint256 nbOfLightBulbs,\n        uint256 nbOfLeds\n    ) public {\n        callSigns.length++;\n        callSigns[callSigns.length - 1].id = nextCallSignId;\n        callSigns[callSigns.length - 1].manufacturerAddress = msg.sender;\n        callSigns[callSigns.length - 1].nbOfAluminumBars = nbOfAluminumBars;\n        callSigns[callSigns.length - 1]\n            .nbOfStainlessSheets = nbOfStainlessSheets;\n        callSigns[callSigns.length - 1].nbOfOtherHardware = nbOfOtherHardware;\n        callSigns[callSigns.length - 1].nbOfBumpers = nbOfBumpers;\n        callSigns[callSigns.length - 1].nbOfLightBulbs = nbOfLightBulbs;\n        callSigns[callSigns.length - 1].nbOfLeds = nbOfLeds;\n        nextCallSignId++;\n    }\n\n    function getDoor(uint256 id)\n        public\n        view\n        returns (\n            uint256,\n            uint256,\n            uint256,\n            uint256,\n            uint256,\n            uint256\n        )\n    {\n        for (uint256 i = 0; i < doors.length; i++) {\n            if (doors[i].id == id) {\n                return (\n                    doors[i].nbOfAluminumBars,\n                    doors[i].nbOfStainlessSheets,\n                    doors[i].nbOfOtherHardware,\n                    doors[i].nbOfBumpers,\n                    doors[i].nbOfLightBulbs,\n                    doors[i].nbOfLeds\n                );\n            }\n        }\n    }\n\n    function getController(uint256 id)\n        public\n        view\n        returns (\n            uint256,\n            uint256,\n            uint256,\n            uint256,\n            uint256,\n            uint256\n        )\n    {\n        for (uint256 i = 0; i < controllers.length; i++) {\n            if (controllers[i].id == id) {\n                return (\n                    controllers[i].nbOfAluminumBars,\n                    controllers[i].nbOfStainlessSheets,\n                    controllers[i].nbOfOtherHardware,\n                    controllers[i].nbOfBumpers,\n                    controllers[i].nbOfLightBulbs,\n                    controllers[i].nbOfLeds\n                );\n            }\n        }\n    }\n\n    function getControlPanel(uint256 id)\n        public\n        view\n        returns (\n            uint256,\n            uint256,\n            uint256,\n            uint256,\n            uint256,\n            uint256\n        )\n    {\n        for (uint256 i = 0; i < controlPanels.length; i++) {\n            if (controlPanels[i].id == id) {\n                return (\n                    controlPanels[i].nbOfAluminumBars,\n                    controlPanels[i].nbOfStainlessSheets,\n                    controlPanels[i].nbOfOtherHardware,\n                    controlPanels[i].nbOfBumpers,\n                    controlPanels[i].nbOfLightBulbs,\n                    controlPanels[i].nbOfLeds\n                );\n            }\n        }\n    }\n\n    function getCallSign(uint256 id)\n        public\n        view\n        returns (\n            uint256,\n            uint256,\n            uint256,\n            uint256,\n            uint256,\n            uint256\n        )\n    {\n        for (uint256 i = 0; i < callSigns.length; i++) {\n            if (callSigns[i].id == id) {\n                return (\n                    callSigns[i].nbOfAluminumBars,\n                    callSigns[i].nbOfStainlessSheets,\n                    callSigns[i].nbOfOtherHardware,\n                    callSigns[i].nbOfBumpers,\n                    callSigns[i].nbOfLightBulbs,\n                    callSigns[i].nbOfLeds\n                );\n            }\n        }\n    }\n}\n",
  "sourcePath": "/home/emmatshi/Rocket_Elevators_Blockchain/contracts/SolutionManufacturing.sol",
  "compiler": {
    "name": "solc",
    "version": "0.5.16+commit.9c3226ce.Emscripten.clang"
  },
  "schemaVersion": "3.3.4",
  "updatedAt": "2021-04-16T02:21:17.957Z",
  "networkType": "ethereum",
  "devdoc": {
    "methods": {}
  },
  "userdoc": {
    "methods": {}
  }
}